:100000000C94B3020C94D0020C94EB020C94D0022A
:100010000C94D0020C94D0020C94D0020C94D00218
:100020000C94D0020C94D0020C946A1F0C94D00251
:100030000C94D0020C94D0020C94D0020C94D002F8
:100040000C94D0020C94D0020C94D0020C94D002E8
:100050000C94D0020000000000000000000000002E
:1000600000002800E7002252500051004F00E60037
:100070000000E000E200E3002C0021522300000019
:1000800011001000360037003800293252000000FD
:10009000E1001D001B0006001900050000000B0018
:1000A0000D000E000F003300340028000000E000B7
:1000B00004001600070009000A00000018000C00E8
:1000C000120013002F003000310000002B0014003C
:1000D0001A00080015001700000024002500260063
:1000E00027002D002E002A00000035001E001F00F2
:1000F00020002100220000001C0000000000000081
:1001000000000000000000000000000000000000EF
:10011000000000000000AE00010001004A004E0097
:100120004D00E40000000100010001000100010099
:100130003F000000BB0001000100010001000100C0
:100140004B0000000100010001000100010001005E
:1001500000005000510052004F000100010001005A
:100160000000010001000100AA00010001000000E0
:10017000A90001000100BC002900010001000000ED
:100180000100010001000100010001000000400029
:10019000410042004300440045004C00000029009B
:1001A0003A003B003C003D003E0000000100000022
:1001B000000000000000000000000000000000003F
:1001C0000000000000000000000020780000000097
:1001D000227828782178E400000000000000000068
:1001E000057800000478000030782C7800002A7828
:1001F000267824782778000000002D78317832782E
:100200002E782B780000270200000000297825783E
:100210002378000000000000000000000000000043
:1002200026020000000000000000000000000000A6
:1002300000000000217800000000000000002F02F4
:100240000000BC00AE00BB00A800AA00A9002B78EB
:1002500000002900BE00BD0000000000037800007F
:10026000300200000000000000000000000000005C
:100270001E0F0500047F3F1F643214643214783C63
:100280001E1E140A052223252628292A2C2D2F304C
:1002900032333536383A3B3D3E4042434547494A82
:1002A0004C4E5051535557595A5C5E6062646668B3
:1002B000696B6D6F71737577797B7D7F81838587BE
:1002C000898A8C8E90929496989A9C9E9FA1A3A5C1
:1002D000A7A8AAACAEAFB1B3B4B6B8B9BBBCBEBFE9
:1002E000C1C2C3C5C6C7C9CACBCCCDCED0D1D2D26C
:1002F000D3D4D5D6D7D7D8D9D9DADADBDBDBDCDC77
:10030000DCDCDCDDDDDDDDDCDCDCDCDCDBDBDBDA2E
:10031000DAD9D9D8D7D7D6D5D4D3D2D2D1D0CECD99
:10032000CCCBCAC9C7C6C5C3C2C1BFBEBCBBB9B8A6
:10033000B6B4B3B1AFAEACAAA8A7A5A3A19F9E9C2B
:100340009A98969492908E8C8A89878583817F7DF6
:100350007B79777573716F6D6B6968666462605ED7
:100360005C5A5957555351504E4C4A4947454342A0
:10037000403E3D3B3A3836353332302F2D2C2A293A
:100380002826252322FFAA7F5540000101010101F3
:10039000010101010202020202020202020303033E
:1003A000030303030304040404040404050505050E
:1003B00005060606060607070707070808080809CE
:1003C0000909090A0A0A0B0B0B0C0C0C0D0D0D0E7A
:1003D0000E0E0F0F0F10101111111212131314140F
:1003E000151516161717181819191A1A1B1B1C1D84
:1003F0001D1E1E1F202021222223242425262627DD
:100400002829292A2B2C2D2D2E2F3031323233340E
:1004100035363738393A3B3C3D3E3F404142434414
:1004200045464748494A4C4D4E4F505153545556F6
:1004300058595A5B5D5E5F616264656668696B6CA2
:100440006D6F7072737577787A7B7D7E808283851D
:1004500087888A8C8E8F91939596989A9C9EA0A25D
:10046000A3A5A7A9ABADAFB1B3B5B7BABCBEC0C267
:10047000C4C6C9CBCDCFD1D4D6D8DBDDDFE2E4E72B
:10048000E9EBEEF0F3F5F8FAFDFF09023B0002019B
:1004900000A0FA0904000001030101000921010183
:1004A0000001224000070581030800010904010042
:1004B00001030000000921010100012232000705AB
:1004C000830308000112011001000000084D596467
:1004D000530002010200010A0353005000360034A9
:1004E0000000000A0359004D0044004B00000004C6
:1004F00003090405010980A101850319012AB70038
:10050000150126B700950175108100C0050C090181
:10051000A101850419012AA002150126A002950156
:1005200075108100C005010906A101050719E02920
:10053000E71500250195087501810295017508816F
:10054000030507190029FF150026FF009506750809
:10055000810005081901290595057501910295018C
:1005600075039103C00011241FBECFE5D8E0DEBFA4
:10057000CDBF11E0A0E6B0E0E8E1F9E402C00590EB
:100580000D92AA31B107D9F723E0AAE1B1E001C089
:100590001D92A533B207E1F70E94E9120C944024A2
:1005A0000C940000A82FB92F80E090E041E050EAC1
:1005B000609530E009C02D9182279795879510F0BE
:1005C00084279527305EC8F36F5FA8F30895EADFAC
:1005D0008D939D930895CF93CFB7CF93C395839B6E
:1005E000E9F7839B0EC0839B0CC0839B0AC0839B4F
:1005F00008C0839B06C0C0910C03C395C0930C0335
:10060000A6C0DF93C0910B03DD27CD5EDC4F839B3B
:1006100002C0DF91E6CF2F930F931F9300B32FEF0C
:1006200003FB20F94F933F9310B34FEF012703FBD8
:1006300021F93BE031C04E7F012F10B3216028C06B
:10064000102F4D7F2260000000B329C04B7F246033
:10065000012F000010B32BC010B3477F28602AC0C1
:100660004F7E00B320612CC04F7D10B320622FC09D
:100670004F7B00B3206432C0422700B349934FEF51
:100680000000102713FB20F910B31C70C9F1297F5B
:1006900091F2012703FB21F900B3237F89F2315046
:1006A00058F1102713FB22F910B3277E79F20127A6
:1006B00003FB23F92F7C81F200B3102713FB24F9ED
:1006C0002F7971F200C010B3012703FB25F92F73B6
:1006D00059F200C000B3102713FB26F9223040F274
:1006E00000C010B3012703FB27F9243028F64F7709
:1006F000206810B30000F9CF10E81ABF00271CC013
:100700003B503195C31BD04010E81ABF0881033C11
:1007100011F10B3401F1209108031981110F12130B
:10072000EDCF4A81441F093669F10D3211F0013EC7
:1007300029F74F7009F0042F009311033F914F9157
:100740001F910F912F91DF91CAB7C7FD47CFCF916E
:10075000CFBFCF91189520911103222379F31091E7
:100760000F03112309F044C034300AF443C030931E
:100770000F0320930A0310910B033BE0311B3093CE
:100780000B0338C000910F03013094F50AE54F7058
:1007900049F43091840034FD2FC000938400C5EEED
:1007A000D2E02EC0433059F0443091F03091F00245
:1007B00034FD22C00093F002C1EFD2E021C030919D
:1007C000290334FD19C000932903CAE2D3E018C0FD
:1007D0003091FC0234FD10C00093FC02CDEFD2E05A
:1007E0000FC02795A8F45150A9F4220F0000F9CFAB
:1007F0004AE503C042ED01C0432FC4E1D0E032E03E
:1008000011B31C60939A11BB02B320E41CE05F9308
:10081000012756E002BB279520F4515021F4220F06
:10082000F9CF012756E000003B5A02BBD0F22795D2
:1008300028F4515029F4220F0000F9CF012756E087
:10084000279502BB20F4515021F4220FF9CF012744
:1008500056E02991332302BB21F6037F1091100348
:10086000110FC651D04002BB11F01093080310E8DD
:100870001ABF086011B3137F402F437F5F9100C000
:1008800000C002BB11BB42BB59CF08950E94450472
:10089000089508950E94490408958FEF87BB88BB8F
:1008A0001ABA94B39B7B94BB8F988BBB85B38C6F28
:1008B00085BB979A0E94FE0490E090936500809318
:1008C0006400E9E2F1E0ADE1B1E0119211921D9214
:1008D0001D9281E0E533F807C1F786E00E94A2127D
:1008E0000E94CA050895A3E0B0E0E9E7F4E00C94A3
:1008F0001C238091640090916500892B71F0809198
:100900001C018F5F80931C01811107C00E94FE04AF
:1009100090E090936500809364003DE1A32E31E068
:10092000B32EF12CE12CD12C42E1C42E88248394E7
:10093000912C6FE7762EC98284010E2C01C0000F26
:100940000A94EAF7102F10951A8324E630E042E06B
:1009500050E0BE016F5F7F4F80E40E94F01D9093D6
:1009600065008093640007BB18BB89B38095082F8E
:1009700010E0798224E630E041E050E0BE016F5F94
:100980007F4F80E40E94101E898190E080959095B1
:100990009695982F88279795879580789F73802BB9
:1009A000912BF501219131915F012817390729F029
:1009B000329791838083DD24D394FFEFEF1AFF0AEF
:1009C00086E0E816F10409F0B6CF2D2D46E069E285
:1009D00071E08DE191E00E94A3120E94CD058D2D62
:1009E0002396EDE00C943823E82FF0E0EE0FFF1F84
:1009F000E75DFE4F8081918108950895A3E0B0E006
:100A0000E4E0F5E00C9426238FEF9FEF90936500D0
:100A1000809364008091350181110EC00E94131DE6
:100A200081E0809335012FEF8EE994E221508040E0
:100A30009040E1F700C0000019821A821FEF1B836B
:100A400024E630E043E050E0BE016F5F7F4F80E47A
:100A50000E94F01D9093650080936400892B31F50E
:100A60008CE089831A821B8324E630E043E050E067
:100A7000BE016F5F7F4F80E40E94F01D9093650080
:100A800080936400892B91F484E189831A831B830A
:100A900024E630E043E050E0BE016F5F7F4F80E42A
:100AA0000E94F01D90936500809364008091640023
:100AB0002396E3E00C9442238330B8F46630A8F424
:100AC0004F3098F450E09FE0699F400D511D112474
:100AD000FA019AE5899FE00DF11D1124EE0FFF1F29
:100AE000EC5AFF4F85919491089580E090E008952D
:100AF0000E945C05089581E0089581E008950E94B8
:100B00007D05089508950E9482050895A5E0B0E04E
:100B1000ECE8F5E00C94262349835A8330913B019D
:100B200089819A81311119C0662399F0222389F0B5
:100B30000E94220B182F682F89819A810E94FE0A39
:100B400069817A81812F0E946F112596E3E00C94D0
:100B500042230E94100B182FF3CF0E94220B6981B1
:100B60007A81F1CFFC01262F40815181628173810E
:100B700084810E948605089581E00895CF93DF93D4
:100B8000EC0160E00E94B205BE010E948305DF9186
:100B9000CF9108950E94460408950E944A04089542
:100BA00008950E94CD090E94D0052FEB87E299E0BD
:100BB000215080409040E1F700C0000008950E945D
:100BC000D1050E948E1F08950E94D1050E949C1F8E
:100BD00008950F931F93CF93DF938C0161E00E94E0
:100BE000B205EC01B8010E947F05811106C080E0CA
:100BF000DF91CF911F910F910895B801CE010E940E
:100C0000CF1C8823A1F3B801CE010E949D1A88232E
:100C100071F3B801CE010E94411C882341F3B80151
:100C2000CE010E940C1A882311F3F80182818823D7
:100C300061F0C330FCE7DF07E9F058F4C115ECE7D9
:100C4000DE07A9F0C130DC47B9F0C8010E947B057E
:100C5000CFCFCB358CE7D807A9F0CC35ECE7DE0752
:100C600071F0CA35DC4789F70E940E0FEECF0E9463
:100C7000DF05BDCF0E94160F0E94E405B8CF0E9489
:100C8000040FE3CF0E94120FE0CF0E940D1F0E94BD
:100C900088060E94721808950E948C060E944919C5
:100CA0000E94121F089508950E945306089581E03E
:100CB000089580FF08C0909A81FF07C0919A82FF33
:100CC00006C0969A08959098F7CF9198F8CF969885
:100CD0000895CF93DF93D82F0E945706C82F8823FB
:100CE00019F08D2F0E9459068C2FDF91CF91089516
:100CF000889A9098899A91988E9A96980895CF9309
:100D0000C82F0E9454068C2F0E946906CF91089527
:100D100080E00E947F0608950E94541E0E947F0674
:100D20000895CF930E94541EC82F809136018C17CE
:100D300079F0C09336010E944F1F60933701709382
:100D400038018093390190933A018C2F0E947F06DD
:100D5000CF910895ABE0B0E0E0EBF6E00C942723F0
:100D60004F83588769877A878B8761110E94650E48
:100D70001E821D8285E0FE013796DE0111960190EC
:100D80000D928A95E1F78C819D81892B61F44981CF
:100D90005A816B817C818D819E810E948E0D2B9664
:100DA000E2E00C94432389819A8189238F3F79F370
:100DB000CE0101960E94BC058111E9CFF0CFFC0164
:100DC000808191810E94540B0895CF93C82F88236E
:100DD000E1F08CEF8C0F813AD0F48C2F0E940A1C2A
:100DE000811113C06C2F80916600909167000E9462
:100DF000C81E882329F08C2F0E94250E0E94860E83
:100E00008C2F0E941D0E0E94860ECF91089580E2C5
:100E10008C0F883048F4C77081E001C0880FCA95F4
:100E2000EAF70E94480EEFCFEBE5EC0FE33040F419
:100E3000F0E0E954FF4F808190E00E946C1EE5CF06
:100E4000C85AC93110F7EC2FF0E0EE0FFF1FEB5737
:100E5000FF4F808191810E94911ED7CF882339F165
:100E60009CEF980F913A28F40E94250E0E94860E5E
:100E7000089590E2980F983050F4877091E001C087
:100E8000990F8A95EAF7892F0E944E0EEFCF9BE5C6
:100E9000980F933028F490E080E00E946C1E089533
:100EA000885A893120F490E080E00E94911E0895D4
:100EB0001F93CF93DF93182FEB010E94E506209735
:100EC00039F4812F0E942E07DF91CF911F91089551
:100ED00087EB9BE00197F1F700C000002197EFCF6F
:100EE00070E060E0893311F460E570E00E9458071B
:100EF0000895882321F00E94480E0E94860E0895CE
:100F0000882321F00E944E0E0E94860E0895B0E0C4
:100F1000A0E0EDE8F7E00C9420236C01D62FC72F5A
:100F2000FC011281F580F2949FE0F9220E943E0EAE
:100F3000E82E8823B9F0E12E1123A1F08C2F807FB9
:100F4000803421F080E28D0F8830D0F08091B7029C
:100F500082FF16C082E00E94D30E0E943E0E91E0F6
:100F6000E82EE926BC2EB2948FE0B822FBE0FB15F8
:100F700008F468C0EB2DF0E0EE5BFB4D0C94E02232
:100F8000E12CF0CF0C2F0F70C07F11F00295007F85
:100F9000112399F0002359F080E28D0F883010F072
:100FA000D11107C0802F0E94480E0E94860E8D2FFF
:100FB00041C0802F0E94580EF8CF8D2F0E942E071F
:100FC000002309F43FC080E28D0F883010F0D1116A
:100FD00004C0802F0E944E0E03C0802F0E945E0E20
:100FE0000E94860E2FC00C2F0F70C07FC03211F0F0
:100FF0000295007FDD2381F0D13009F468C0112310
:1010000009F472C0FF2009F468C0F601858180FFF1
:10101000CECF8F70858361C08091B70282FD33C0CF
:10102000112359F0002329F0802F0E94480E0E94BE
:10103000860E80E00E94E50605C080E00E942E0733
:101040000111C7CFEB2DE850FF0B349720F40E941D
:10105000541E0E947F06EE2089F00E943A0E80FD09
:101060000DC0F60112820E94340E0E945C0AC60175
:101070000E9491090E94340E0E946C0ACDB7DEB71F
:10108000E9E00C943C23112389F0F11006C00E9482
:10109000680E802B0E947907D5CF21E0F212F7CF9E
:1010A0000E94680E802B0E946F0ECCCFF11006C0FC
:1010B0000E947C0E802F0E948007C4CF31E0F3167F
:1010C00009F2802F0E9480070E947C0EBBCF112363
:1010D00031F085E08F1508F4B5CF802FDBCF94E099
:1010E0009F1508F4AFCFE6CFFF2021F3D93349F4A1
:1010F000FFEF2DEE32E0F15020403040E1F700C02C
:1011000000008D2F0E942E079DCF8C2F86958695EF
:10111000837069F0813009F095CF8D2F9C2F9370EB
:10112000111102C080E090E00E94911E8BCF8D2FA4
:101130009C2F9370111102C080E090E00E946C1E01
:1011400081CF8C2F8370A1F511117CCF4D2F42954B
:1011500046954770440F440F2D2F2F7030E0042E1A
:1011600002C0220F331F0A94E2F790E080E0D4FF20
:1011700009C08FE090E002C0880F991F4A95E2F7FE
:1011800080959095C695C695C370822B932BC230DF
:1011900049F058F4C13019F00E942C0A53CF0E9434
:1011A000230A50CF0E94350A4DCF0E94200A4ACF11
:1011B0008695112311F08C2F8170882309F442CF7A
:1011C0004D2F429546954770440F440F2D2F2F7099
:1011D00030E0042E02C0220F331F0A94E2F790E0A1
:1011E00080E0D4FF09C08FE090E002C0880F991F13
:1011F0004A95E2F780959095C695C695C370822B67
:10120000932BC23049F058F4C13019F00E94970A6C
:1012100019CF0E948E0A16CF0E94A00A13CF0E94F7
:10122000440A10CFCF70112329F08C2F0E945C0A42
:101230008D2F30CF8D2F0E9480078C2F0E946C0A3B
:1012400001CFD23F51F160F4D03FB9F0D13F81F0EE
:10125000112309F449C0F110AACE8C2F8F7121C03F
:10126000D33F11F1D43FA1F78091B70282FD26C090
:101270008C2F8F71112311F314C0112349F084E0D6
:101280008F1508F4DFCE8C2F8F710E947E0ADACE84
:1012900095E09F1508F4D6CEF6CF8C2F8F711111E3
:1012A000CDCF0E945C0ACECE112329F08C2F8F71F6
:1012B0000E94500AC7CE0E944B0AC4CE112349F0A7
:1012C000CF718C2F0E945C0A63E08C2F0E94B50EB8
:1012D000B9CE81E00E94D30EE1E0EF1508F0B2CE66
:1012E00082E00E94D30EAECEF11000CF8C2F8F7112
:1012F000A5CF0F931F93CF93DF93EC016881798182
:101300008A810E945F0B8C010E94A90A0E941F0A19
:10131000B801CE010E948707DF91CF911F910F91F5
:101320000895CF93DF93EC018B819C81892B29F069
:101330008881998189238F3F51F4DF91CF9108955E
:10134000CE010E947909CE010E94BE05F6CFCE01E2
:101350000E94E9058111F4CF0E943E0E882369F3B3
:101360008A81882351F38091B70282FFE6CF82E021
:101370000E94D30EE2CF90E080E00E946C1E90E0CD
:1013800080E00E94911E0E94650E0E94860E0895C4
:101390000E942D0E0E94BB0908950E94550E0E94C6
:1013A000C809089592959F70963091F058F4925F15
:1013B0009F70923058F4803F19F030F4883E30F43A
:1013C00081E008959A5FF4CF843FD1F380E00895DF
:1013D000883EB0F3813FD1F7F3CFFC018381948144
:1013E000892B29F08081918189238F3F11F480E03E
:1013F0000895808191810E94540B0E94D209089522
:10140000A5E0B0E0E6E0FAE00C9427232596E2E0C0
:101410000C944323A6E0B0E0E0E1FAE00C9427232B
:101420002696E2E00C94432308950E94140A08953E
:101430000E94150A90936F0180936E01089508959C
:101440000E94180A089520916E0130916F01822B3D
:10145000932B0E94180A089520916E0130916F011C
:10146000822393230E94180A089520916E013091DF
:101470006F01822793270E94180A08950E94140A78
:1014800008950E943E0A08950E94410A90936D01BA
:1014900080936C01089590E080E00E94440A0895D2
:1014A00021E030E0A90102C0440F551F8A95E2F700
:1014B000CA010E94440A089521E030E002C0220FD0
:1014C000331F8A95E2F780916C0190916D01822B18
:1014D000932B0E94440A089521E030E002C0220FBD
:1014E000331F8A95E2F72095309580916C01909199
:1014F0006D01822393230E94440A089521E030E085
:1015000002C0220F331F8A95E2F780916C019091FF
:101510006D01822793270E94440A089520916C014F
:1015200030916D01822B932B0E94440A08952091E3
:101530006C0130916D01822393230E94440A089527
:1015400020916C0130916D01822793270E94440AFB
:1015500008950895262F277091E001C0990F2A95CC
:10156000EAF723E0769567952A95E1F7660F771FEE
:10157000660F771FFA01E60FF71F50E040E0682F73
:1015800070E08191DF0111979B01042E02C0369516
:1015900027950A94E2F721702195282729232827E7
:1015A0002C934F5F5F4F4430510559F70895A82F92
:1015B000A77023E0969587952A95E1F7880F991FE4
:1015C000880F991FFB01E80FF91F50E040E080E011
:1015D000219130E00A2E02C0369527950A94E2F751
:1015E00021703327042E01C0220F0A94EAF7822BC0
:1015F0004F5F5F4F4430510559F70895262F9630BD
:1016000070F48F3060F4682F70E08FE0989F600D69
:10161000711D11244CE351E0822F0E94AA0A089503
:10162000292F963068F48F3058F490E06CE371E025
:101630003FE0239F800D911D11240E94D70A089539
:1016400080E00895B0E0A0E0E8E2FBE00C94202305
:101650007C0100916C0110916D0180916E0190915F
:101660006F01082B192BCFE0D0E0CC24C394D12CF0
:10167000BC2EC6010C2E02C0880F991F0A94E2F7F7
:1016800080239123892B49F4219790F7B12C8B2D3E
:10169000CDB7DEB7E9E00C943C23B7018C2F0E9454
:1016A0007B11019789F3F3CFCF93DF93EC010E9475
:1016B000220BBE010E947B11DF91CF9108951F93F1
:1016C000CF93DF93EB0190913B01992339F0CB014C
:1016D0000E94540BDF91CF911F910895882369F0E8
:1016E000CB010E94220B182F682FCE010E94FE0A08
:1016F000BE01812F0E947B11EDCFCB010E94100B08
:10170000182FF6CF1F93CF93DF93C091700116E08F
:10171000809171018C1304C0DF91CF911F910895C6
:10172000D0E01C9FF0011D9FF00D1124EE58FE4FDC
:101730004081518162817381848195810E940A0A6E
:101740002196C770E5CF4091A2015091A30160910D
:10175000A4017091A5018091A6019091A7010E941A
:101760000A0A08951F93CF93DF938091A701807F8A
:1017700009F049C08091A401882309F444C08091F4
:101780007001C09171016091A2017091A301A091BB
:10179000A501B091A601D62FD72316E0C81799F15D
:1017A00090E0109711F0DF3F19F401968770F6CFA3
:1017B000189F9001199F300D1124F901EE58FE4F2A
:1017C00041814713F2CF40814613EFCF428141114F
:1017D000ECCF438154814A1B5B0B483C510528F7F1
:1017E0008091A7018F7080618093A701F901E9586A
:1017F000FE4F80818F708061808382EA91E00E9439
:1018000091090E94820BDF91CF911F910895A1E170
:10181000B0E0EDE0FCE00C941F238C0185E0F801C2
:10182000DE011D9601900D928A95E1F7F801E280A4
:1018300082EAC82E81E0D82E6091A5017091A601A0
:101840006115710509F44EC19091A2012091A30187
:10185000892F82238F3F09F445C140815181A380A4
:10186000B480F090A401F501E61BF70BFF2009F40A
:10187000EAC08091A701382F307FE83CF10508F0DD
:10188000A3C031116DC0FE2C251316C0941314C0D3
:10189000E11012C08F7080618093A7010E94A30B9A
:1018A000C6010E9491098091A701F80185838F2DBF
:1018B0006196EAE00C943B23A114B10429F0842F33
:1018C00085238F3F09F027C180E0F82FF170DF2ECC
:1018D00080FF3CC0809170012091710136E082133D
:1018E00015C04D875E878D859E850E94540B292FDC
:1018F00022952F702230F0F0243018F59F70F1F00F
:10190000F8019581907FD1F4D12C1EC090E0389FD2
:10191000F001399FF00D1124EE58FE4F61816513DF
:1019200006C06081641303C06281E6120FC0019695
:101930008770D5CF9F7011F0882331F3805E883097
:1019400018F3C8010E949109FD2CB1CFEE2009F4D3
:10195000AECF8091A70181608093A701F12CA7CF22
:10196000251306C0941304C0F801EE2009F487C0C3
:10197000C8010E94ED09882319F1EE2009F1809138
:10198000A701803270F02091A2013091A301388725
:101990002F831986BB86AA868C87CE0107960E9464
:1019A000910986E0F801A2EAB1E001900D928A95D2
:1019B000E1F70E94B20B0E94A30BFF24F39477CFB0
:1019C000C8010E949109F9CF311113C07A2DB98A4B
:1019D000A88A6E2D89890E94000A82EA91E00E94FD
:1019E000910986E0F60111928A95E9F70E94A30B0E
:1019F000B5CF25130FC094130DC0E1100BC0F80133
:101A00008583C8010E94910986E0F60111928A95AA
:101A1000E9F74DCFC8010E94ED09882389F2EE2035
:101A200079F28091A701803208F4BBCF2091A20106
:101A30003091A3013A8329831B82BD82AC828E83BD
:101A4000CE010196ACCFE83CF10508F03EC0FE2C7B
:101A5000EE2009F4B5CF25132AC0941328C0809135
:101A6000A70180FD1BC0982F907FC1F0F8018583EE
:101A7000903F31F0982F907F905F8F70892B8583F6
:101A8000C8010E94910986E0F801A2EAB1E0019044
:101A90000D928A95E1F70E94A30B09CF86E0F80129
:101AA000A2EAB1E001900D928A95E1F700CFC8015A
:101AB0000E94ED09811175CF8091A701816080930B
:101AC000A701C8010E949109F2CE7A2DB98AA88A8D
:101AD0006E2D89890E94000A86E0F60111928A958E
:101AE000E9F7D9CFEE2009F46BCFC8010E94ED09C8
:101AF000F82E882309F464CF86E0F801A2EAB1E069
:101B000001900D928A95E1F782EA91E00E94DF064A
:101B10000E94B20BC0CF81E08E25D7CEACE0B0E002
:101B2000E4E9FDE00C9426234F83588769877A8780
:101B30008B879C87CE0107960E94070C882369F04B
:101B40008A859B85892B39F04F815885842F852381
:101B50008F3F09F06BC016E05FC086E0FE0137964C
:101B6000DE01119601900D928A95E1F78A859B8599
:101B7000892B89F388859F8189238F3F61F3209189
:101B8000710130E0C9010196877099274091700179
:101B90004817190671F40E94CD0910927101109234
:101BA000700186E0E2EAF1E0DF011D928A95E9F733
:101BB000D2CF96E0929FD001939FB00D1124AE58E2
:101BC000BE4FFE01319601900D929A95E1F78093F8
:101BD00071010E94820BBFCF819FC00111248E58DA
:101BE0009E4F0E94070C8823E9F0E09170011E9F30
:101BF000F0011124EE58FE4F4081518162817381C2
:101C0000848195810E940A0A8091700190E001967A
:101C10008770992780937001809170019091710174
:101C20008913DACF2C96E3E00C94422369857A85F8
:101C30008B859C850E940A0A8ECF682F8091660052
:101C4000909167000E94FE1E0895682F80916600A3
:101C5000909167000E94011F089580916600909105
:101C600067000E94041F08958091A80185958595BD
:101C7000859508958091A801877008959091A80195
:101C8000977081E009F480E008958091B301089590
:101C90009091B301892B8093B30108958095909121
:101CA000B30198239093B30108951092B30108955E
:101CB0009091B201892B8093B20108958095909103
:101CC000B20198239093B20108951092B201089541
:101CD0008091A901089508950E946B0E0895909136
:101CE000B70292FF08C09091A901981721F0809344
:101CF000A9010E946C0E08958091A901882329F002
:101D00001092A90180E00E946C0E0895E091660097
:101D1000F09167008091B3018083E0916600F091BB
:101D2000670080819091B201892B80839091A901F5
:101D3000992381F0E0916600F09167008081892B02
:101D4000808380916600909167000E94B61E811189
:101D50000E947C0E80916600909167000E94611E37
:101D6000089508950E94B10E08959091B70292FFD0
:101D700011C098E0899F90011124622B6093A80103
:101D80000E945C0A8091A8018595859585950E94A1
:101D9000B20E08950E945C0A08951092A80180E096
:101DA0000E94B20E08959091A80180958923809396
:101DB000A801282F277091F4282F082E000C330B30
:101DC0009217130659F09091B70292FF07C08595BC
:101DD000859585950E946C0A0E94CD0E089590917C
:101DE000B70292FB222720F9281769F080FB92F9AD
:101DF0009093B7028091B6029091B7020E94370F7C
:101E000082E00E94D30E08958091B70282FB88275A
:101E100080F991E089270E94EF0E089581E00E94E9
:101E2000EF0E089580E00E94EF0E08956FEF7FEFB0
:101E300090E080E00E94FE23089590E080E00E9400
:101E4000DB2321E0873E9E4F09F020E0822F08959A
:101E500082E090E00E94CD23089583E090E00E940C
:101E6000CD23089584E090E00E94DB230895BC0117
:101E700084E090E00E94FE230895AB01BC018FE056
:101E800090E00E94F2230895AB01BC0183E190E051
:101E90000E94F223089560E070E0CB010E94440F9D
:101EA000089560E070E0CB010E943D0F0E944B0F4F
:101EB000089567EE7EEF90E080E00E94FE2360E0F0
:101EC00082E090E00E94E12360E083E090E00E94E5
:101ED000E12310926F0110926E0160E074E184E0E2
:101EE00090E00E94FE2360E086E090E00E94E12303
:101EF0006FEF87E090E00E94E12340E050E0BA01FC
:101F000088E090E00E94F22360E08DE090E00E9483
:101F1000E12340E050E0BA0188E190E00E94F22322
:101F200060E087E190E00E94E12340E050E0BA01E8
:101F30008CE190E00E94F22370E060E080E290E0AB
:101F40000E94FE2340E050E0BA0188E190E00E9448
:101F5000F2230E94510F08950E94590F0895682F8F
:101F60008EE090E00E94E12308950E944F1F60934D
:101F7000C6017093C7018093C8019093C901609313
:101F8000C2017093C3018093C4019093C501089569
:101F9000089508950E94C90F089508950E94CD0FD5
:101FA000089585E692E10E944A1E0E94C80F0E9491
:101FB000CA0F089581E008950E94DA0F08950895E8
:101FC00008950E94DF0F0E94E00F08950E9484127E
:101FD0000E94780608950E943C1F0E944D040E94B2
:101FE000E60F0E940D190E94CE0F0895AAE0B0E0FE
:101FF000ECEFFFE00C941C230E94730426EB822E6E
:1020000021E0922E640110E0F601E190F1906F0161
:10201000812F0E94F4041F5F163009F449C0E816AE
:10202000F90691F38091CA0181FD0E94FD040E948E
:10203000DC0F782E10E0812F0E94F4047C01F40163
:10204000A190B1904F018A159B0561F100E0CC246D
:10205000C394D12CAE24BF24C5018C219D21892B92
:10206000C1F07720B1F00E831F8321E0C7018C21DE
:102070009D21892B09F420E028870E94431F81605D
:10208000782F9A8789874E815F8168858A850E942B
:10209000AA060F5FCC0CDD1C0F30F1F6F40132976D
:1020A000F182E0821F5F163031F60E94B50F22C028
:1020B000E816F90609F0B6CF0E94431F8C01809103
:1020C000B4019091B50108171907A1F08FEF89832A
:1020D0008A831B820E94431F8160782F9D838C839B
:1020E00049815A816B818D810E94AA061093B501A6
:1020F0000093B4010E9453190E9491062A96EDE0C4
:102100000C943823CF93DF930E948011EC0181154A
:1021100020E59207D0F5811530E4930708F086C0DA
:10212000803E910518F58D3C910508F07DC0883AF8
:10213000910570F4853A910508F06EC081309105E3
:1021400001F10097F1F00497E0F4D0E0C0E019C08D
:10215000813C9105D0F7C85AD0E0CC0FDD1FC654A2
:10216000DF4F0990D881C02DD4640BC081159042F7
:1021700008F0A8C0C11581E0D80718F4C83ED10501
:1021800020F7CE01DF91CF910895803622E59207A6
:1021900010F5803432E5930708F052C08032924542
:1021A00008F047C0C11582E5D80708F47DC02C2F80
:1021B0002695269540E2249F900111248C2F837050
:1021C000C1E0D0E002C0CC0FDD1F8A95E2F7C22B40
:1021D000D32BDD68D6CF803A22E5920760F48038B1
:1021E00032E5930708F441C0CF71D0E0DC2FCC2753
:1021F000C46FD06AC6CF803C42E5940708F449C05A
:10220000C03E82E5D80708F0A0CFDC2FCC27CC2732
:10221000DF71C06FD06AB5CFC55AD0E0C451DF4F6F
:10222000C881D0E0D064ADCFD065ABCFDF70D06ACD
:10223000A8CFCF71D0E0DC2FCC27C16FD06AA1CF5F
:10224000282F26952695277080E2289F900111243B
:102250008C2F8370C1E0D0E002C0CC0FDD1F8A95C7
:10226000E2F7C22BD32BDC688CCF282F269526953E
:10227000277040E2249F900111248370C1E0D0E0D8
:1022800002C0CC0FDD1F8A95E2F7C22BD32BDA6890
:1022900078CF8F710E942212C82FD0E0DC2FCC277C
:1022A000CC27DF71D0626DCF8C2F8F710E942212EC
:1022B00035E0D695C7953A95E1F7CF709C2FEC01A4
:1022C000D0695FCF8D2F8F710E94221290E0982FDE
:1022D000882788279F719C012C2BE901E3CF462F8B
:1022E000763030F46F3020F4672F0E94780508951F
:1022F00090E080E008950E946F110E94821008957E
:1023000082389105B9F1B0F48133910509F47DC0AB
:1023100048F48932910509F46DC08A32910509F4B7
:102320007BC008958533910509F45FC08933910519
:1023300009F10895833E9105D9F138F4803E910565
:1023400029F1823E910579F10895863E9105D9F1F2
:10235000873E910509F43EC0843E910541F52091E8
:10236000B70221FF24C08091B60284FD19C087EE18
:1023700090E008952091B602237009F05AC0209190
:10238000B70223FF14C089E290E008952091B602BD
:1023900020FD38C03091B70230FF09C024FF43C090
:1023A00090E080E008952091B60222FDF7CF0895D5
:1023B0002091B60222FD3AC03091B70230FD39C0FB
:1023C00024FFF5CFEDCF2091B60223FFF0CF24FDFF
:1023D000E7CFCDCF2091B60223FD2EC03091B702BA
:1023E00031FFEECF84EE90E008952091B60225FFF4
:1023F000DECFC9CF2091B60225FD21C02091B702C2
:1024000023FFD5CF89E390E0D2CF2091B60226FFFB
:10241000CECF8AE290E008952091B60226FFC7CF82
:1024200081E390E0089583EE90E0089582EE90E0DD
:10243000089580EE90E0089586EE90E0089585E39B
:1024400090E008959091B60292FF06C0282F28715F
:102450002830F9F4877F846093FF06C0282F287105
:102460002831F1F4877E84612091B70220FF06C0F5
:10247000382F38713830D9F4877F816021FF06C04A
:10248000282F28712831D1F4877E816194FD877EC1
:102490000895282F24712430F9F68B7F8860DCCFD3
:1024A000282F2471243101F78B7E8861DDCF382FEE
:1024B0003171313019F78E7F8860E0CF282F21717C
:1024C000213121F78E7E8861E1CF80E008950E945E
:1024D000160F08950E9473042FE389E191E02150C3
:1024E00080409040E1F700C000000E94730480E04B
:1024F0000E94F40480FF04C00E9467120E948E1F95
:1025000008950E946A1208950E941D0F811102C051
:102510000E94AC0F0E94280F8093CA010E94320FC4
:102520009093B7028093B6020E9481120E942D0FF1
:1025300090E00E94200A80916C0190916D010E94B0
:10254000410A08950895CF92DF92EF92FF921F9370
:10255000CF93DF936C017B01C42F222349F081E0EC
:102560008093CD010E94431F9093CC018093CB01B7
:102570001091CD0111110AC010E0812FDF91CF9190
:102580001F91FF90EF90DF90CF9008958091CB0145
:102590009091CC010E945B1F059770F3D0E0CC0FA7
:1025A000DD1FAE01B601C7010E94B723892B41F0A0
:1025B000AE01B601C7010E94C4231092CD01DDCF48
:1025C00010E0FBCF0E94AC1F0E94EB0F0E94BD1FCA
:1025D00008950E942A1F0E94A51F0E94D10F0E94E9
:1025E000E2120E94CB1F0E94E10FFBCFEF92FF92FD
:1025F0000F931F93CF93DF93EB01E82FD1110EC000
:10260000442321F0F0E0E657FC4FE4916E2F7E2F3B
:102610008E2FCDB7DEB7E6E00C943F230D2F10E0F0
:10262000282F30E0442329F026573C4FF90124910C
:1026300030E0F6E0CF9FC0011124EFEFF0E0BF01E2
:102640000E949622AB018C2F90E0880F991FA5E580
:10265000A49FB001A59F700D1124861B970B982F86
:10266000990F980FBF01601B710B629FD001639F90
:10267000B00D729FB00D11248B2F9D9FB0011124BE
:10268000672F7727EF01C61BD70BBE01629FE001C2
:10269000639FD00D729FD00D11247F01E91AF108BC
:1026A000E09EB001E19E700DF09E700D1124672F29
:1026B0007727E61BF70BE29F8001E39F100DF29F47
:1026C000100D1124E12F722F4230510599F048F47A
:1026D0004115510569F04130510581F0EB2F8D2FE7
:1026E00007C04430510569F080F046305105B1F71C
:1026F0006E2F8FCFE22F7B2F812FFACFE22F7D2FEE
:10270000F7CFEB2F822F712FF3CF7B2F822FED2F5F
:10271000EFCF41E00E94F612089508950E948913B8
:102720000895CF93DF93762FE901682F842F0E94BD
:102730008E13798368838A83DF91CF9108954B3F0D
:1027400008F04AEF0E94911308958091B802982FE3
:102750009E7F61F4817082608093B8028091BB0299
:102760008B3F18F08AEF8093BB0208958635B0F353
:1027700081708465F1CF88E090E00E94D5230895B0
:10278000CF92DF92EF92FF926B017C010E94A51322
:10279000B701A60188E090E00E94F223FF90EF903D
:1027A000DF90CF900895E8EBF2E083E08083118220
:1027B0008FEF82838AEF83831482608171818281AB
:1027C00093810E94C01308958091B80280FF02C0D7
:1027D0008695089580E008959091BC02933018F496
:1027E0009F5F9093BC02882351F06091B802709172
:1027F000B9028091BA029091BB020E94C013089561
:1028000081E00E94EC1308959091BC02992319F085
:1028100091509093BC02882351F06091B80270915E
:10282000B9028091BA029091BB020E94C013089530
:1028300081E00E940414089570E00E947E1A0895B9
:1028400060916C008091B80280FF0BC080916B009A
:1028500023E0829FC001112483549D4F0E941C14C9
:10286000089580916D0090916E0023E0829FF001A9
:102870001124E354FD4F891748F711821082128208
:102880008F5F3396F8CF9091B80290FF0EC0909171
:102890006D0020916E0033E0939FF0011124E3540A
:1028A000FD4F921718F00E942014089581836083D1
:1028B00042839F5F3396F5CFA3E0B0E0E2E6F4E118
:1028C0000C9427239091B80290FF0AC09E012F5FBD
:1028D0003F4F0E949F134B8169818A810E9443145C
:1028E0002396E2E00C944323CF93DF93EC01EC8139
:1028F000F0E0EB57FD4F4491E8EBF2E0628181811B
:102900000E945C148C818F5F8C83DF91CF9108953E
:10291000CF93DF93EC01E8EBF2E0438162818C819D
:102920000E945C148C818F5F8C83DF91CF9108951E
:10293000A3E0B0E0EEE9F4E10C9425238C01809152
:10294000CE0181110AC09E012F5F3F4F4AEF6FEF0A
:102950000E949F138A818093CE01F80164816130C7
:1029600069F08091CE0140E0662361F040E0623082
:1029700011F44091CE0180E060E004C06091CE018E
:1029800040E080E00E944314F801848190E00196C9
:1029900063E070E00E94AA2284832396E4E00C9412
:1029A0004123A3E0B0E0E7EDF4E10C942023082FED
:1029B000D62EE42EC22E9091B80290FF29C0E92FA6
:1029C000E695AE2FB0E0A151BF4F8C9180931602D7
:1029D0009E7F923009F59E012F5F3F4F802F0E940E
:1029E0009F134B8169818A810E9443140093B9022D
:1029F000D092BA02E092BB02CC2051F06091B802B2
:102A00007091B9028091BA029091BB020E94C013EA
:102A10002396E9E00C943C23823019F4E090BB0249
:102A2000E5CF863019F40091B902E0CF8930D9F3AF
:102A30008931E1F6E9516E2F6170B62EE695F0E02E
:102A4000EB57FC4F1491F12C60916F00F61618F0C3
:102A50000E942014CBCFF19EC001112470E00E948F
:102A60009622802FB11014C0860F20916D00622F26
:102A70006F0D7727771F9B01220F331F260F371FFC
:102A800023543D4F4E2D6D2D0E949F13F394DCCFA8
:102A9000861BEBCFE8EBF2E09181282F4381628126
:102AA00088E0890F0E94D114089581E00E944A15A0
:102AB0000895E8EBF2E09181282F4381628188EF4D
:102AC000890F0E94D114089581E00E94591508953C
:102AD000E8EBF2E0628128E0620F08F46FEF282F44
:102AE000438181810E94D114089581E00E9468157C
:102AF0000895E8EBF2E0628128E0621B08F460E0F0
:102B0000282F438181810E94D114089581E00E9481
:102B100079150895E8EBF2E0438128E0420F08F4CC
:102B20004FEF282F628181810E94D114089581E0A6
:102B30000E948A150895E8EBF2E0438128E0421BE9
:102B400008F440E0282F628181810E94D114089509
:102B500081E00E949B15089520E00E94D114089501
:102B6000EF92FF921F93CF93DF93EC0110E0EE24DE
:102B7000EA94F12C60916F00161770F00E942014F7
:102B80009A818C8190FF27C08F5F8C83DF91CF91DA
:102B90001F91FF90EF90089520916D00422F410FFB
:102BA0005527551FCA019A01220F331F280F391FBD
:102BB00023543D4F70E0C7010E94AA22962F8C81BA
:102BC0004091BB026091BA02199F800D11240E94AE
:102BD0009F131F5FCFCF8150D8CFB0E0A0E0E3EFCD
:102BE000F5E10C941F23FC0182810FEF80FF01E0CF
:102BF00010E04CE0A42E80916F00181798F00E940E
:102C000020148091D001013009F04FC0811102C021
:102C100080916F0081508093D001CDB7DEB7EAE09C
:102C20000C943B23C0916D00C12ED12CCC0DDD2D19
:102C3000D11DCE01880F991FC80FD91FC354DD4F76
:102C4000198218821A8234E0E32EF12CB12C809183
:102C5000D0018B0D8D301CF16A2D0E948822892FA6
:102C6000082E000C990BC816D90691F48091BB026E
:102C70008E9DA0018F9D500D11245595479555951A
:102C800047959E016091BA028091B9020E949F13FC
:102C9000B00EF1E0EF1AF108D1F61F5FACCF87FF5D
:102CA000DFCF90916F00890FDBCF90E001966091AC
:102CB0006F0070E00E94AA22AECF0F931F93CF93B4
:102CC000DF9380916D0090916E0023E0829FF00170
:102CD0001124E354FD4F891740F1C0E0D3E0609127
:102CE0006F00C61740F10E94201420916900809166
:102CF000CF01820F8093CF0190916A00920F909341
:102D00006A00191654F4082E000C990B40916F00BC
:102D10004150550B841795071CF0219520936900AD
:102D2000DF91CF911F910F9108951182108212822D
:102D30008F5F3396D0CF0C2F10E070E0C8010E9457
:102D4000AA2220916D00820F482F50E02091CF01E0
:102D5000022E000C330B02171307BCF020916A00FF
:102D6000022E000C330B201731077CF08D9F900151
:102D7000112423543D4F4091BB026091BA028091CF
:102D8000B9020E949F13CF5FAACFFA01EE0FFF1F77
:102D9000E40FF51FE354FD4F118210821282F3CF2E
:102DA000B0E0A0E0E6EDF6E10C941D23EC014C81CF
:102DB000042F10E09801D8010E94EE229B01AC0183
:102DC0000E9404234B015C01E0E2F0E0E01BF10B08
:102DD000A5E5B0E0AC019B010E9404236B017C01DE
:102DE0009F01DF010E94E6229B01AC010E940F239C
:102DF0009B01AC01280D391D4A1D5B1DC701B601A1
:102E00000E94BE22F22E822F90E039E23F1520F17F
:102E100043E0249F9001112435952795122F10959A
:102E200000E085E5E82EEF1880916F00081718F193
:102E30000E9420149C8181E0992319F0903219F4AA
:102E40008FEF8093680080916800890F8C83CDB7E5
:102E5000DEB7ECE00C94392325E530E0B901681BBE
:102E6000790B9B01220F331F260F371F37FFD4CF5B
:102E70002F5F3F4FD1CF8E2D01FD8F2D20916D0003
:102E8000622F600F7727771F9B01220F331F260FBA
:102E9000371F23543D4F412F6091BA020E949F1368
:102EA0000F5FC2CF0F931F93CF93DF93EC0110E01E
:102EB00000E090916F009017110609F06CF40E94E9
:102EC00020148C8190E00196817099278C83DF918A
:102ED000CF911F910F91089520916D00A801420F8D
:102EE000511D9A01220F331F240F351F23543D4FCC
:102EF0004C816091BA028091B902969590171106A3
:102F000051F04CF0442349F04091BB020E949F13C2
:102F10000F5F1F4FCECF4423B9F340E0F7CFB0E0AF
:102F2000A0E0E5E9F7E10C941923FC0162804480FC
:102F300081E08483E5E8F2E07490E4E0F3E0E4917A
:102F4000812C75E0972EF2E0CF2EDD24D394AA24B5
:102F5000AA94B12C55245A94E7190E2F10E08091B1
:102F60006F00881638F00E942014CDB7DEB7E0E17C
:102F70000C943523E82CF12C82E0861568F09E9C99
:102F8000F0019F9CF00D1124EF52FE4F8091B90289
:102F900080838091BA028183411023C09E9CF001FE
:102FA0009F9CF00D1124EF52FE4F1382128220914C
:102FB0006D00C701820F911D9C01220F331F280F46
:102FC000391F23543D4F9E9CF0019F9CF00D11240E
:102FD000EF52FE4F4281618180810E949F13839452
:102FE000BECF9E9CE0019F9CD00D1124CF52DE4F9E
:102FF0008B818823E9F081508B83859DC00111244A
:103000006C8170E00E949622FB01FF27EB57FD4F79
:103010008491E82FE719E59DC0011124B8010E94B1
:1030200096228091BB02689FB00111247A83BFCFA2
:103030000E949A232091BB02269521582C9DA00125
:103040002D9D500D1124452F5527841795070CF001
:10305000AECF82E0861588F40E949A23B5010E94C3
:10306000AA2288830E949A232091BA022695622F71
:1030700070E00E94AA22280F29839E9CF0019F9C49
:10308000F00D1124EF52FE4F12828091BB02893C59
:1030900058F088EC9E9CF0019F9CF00D1124EF529B
:1030A000FE4F8483838383CF8431A0F784E1F2CF02
:1030B000E8EBF2E080818E7F808360817181828184
:1030C00093810E94C013109217020E942014089549
:1030D000E8EBF2E080818E7F8083109217020E94DD
:1030E00020140895109217028091140281110AC0D1
:1030F00081E0809314028091B80281708093130262
:103100000E94681808956091B802669570E04BE0DF
:1031100050E080E790E00E94AA23892B19F481E017
:10312000809317020E94431F90930E0280930D021A
:1031300008959091B80290FF2BC09170811129C021
:1031400092609093B802662351F06091B80270913A
:10315000B9028091BA029091BB020E94C0136091A3
:10316000B802669570E04BE050E080E790E00E9486
:10317000AA23892BA9F01092170281E080931002F4
:103180004091BB026091BA028091B9020E94AC15D5
:1031900008958B3210F09465D4CF880F982BD1CF3F
:1031A0000E948318EACF682F9091B802969581E02B
:1031B000890F8B3208F081E00E949918089581E010
:1031C0000E94D3180895682F9091B80296958FEFBA
:1031D000890F09F48AE20E949918089581E00E94FB
:1031E000E318089561E00E9499180895E8EBF2E071
:1031F00080818160808386950E94F2180895809175
:10320000B80280FF03C00E94581808950E94F61863
:10321000089560E00E949918089580911502811127
:103220002EC00E941D0F811104C00E94AC0F0E948D
:10323000D3130E94BB136093B8027093B9028093BA
:10324000BA029093BB026E7F61F40E94D3130E9476
:10325000BB136093B8027093B9028093BA02909343
:10326000BB020E94A513109217028091B80280FF42
:1032700003C086950E94091981E080931502089584
:10328000E8EBF2E080818160808386950E940919D5
:103290000895109214028091130281110E94401926
:1032A0000E94831808950F931F93CF93DF9380910B
:1032B00017028823B9F180911602E091B802E695D1
:1032C000E81BE0930F02823091F5F0E0EF57FD4FDD
:1032D000E491CE2FD0E004E714E18091100288231E
:1032E00061F0109210020E94431F90930E0280938F
:1032F0000D0210921202109211020E94431FE091DF
:103300000D02F0910E028E1B9F0B8F3F9F4750F4D2
:10331000EC0FFD1FF0930E02E0930D028DE092E0A2
:10332000F8010995DF91CF911F910F910895863093
:1033300049F4F0E0E258FD4FE491CE2FD0E008E8E8
:1033400014E1CBCF893051F4E695F0E0E558FD4F1C
:10335000E491CE2FD0E000EB15E1BFCF8F3051F4D8
:10336000E695F0E0E858FD4FE491CE2FD0E00DEE69
:1033700015E1B3CF853149F4F0E0EB58FD4FE4910E
:10338000CE2FD0E00DE516E1A8CFC8E2D0E000EDE9
:1033900016E1883109F4A1CF833239F4E3E7F2E092
:1033A000C591D49108E914E198CFC4EFD1E002E5CA
:1033B00017E1843209F491CFC0EDD7E00DE813E1B5
:1033C000853209F08ACF8E2F63E00E947C22E92F9C
:1033D000F0E0E059FD4FE491CE2FD0E00FE817E187
:1033E0007CCFFA01811101C0FB0109950895CF93AB
:1033F000DF93C82FD62F0E94E4138C1748F00E9449
:10340000E4138D1728F40E94DF18DF91CF910895FF
:103410008C2F0E94F218F9CF1F93CF93DF93EC010A
:10342000FB011281111110C00E94450E8272FE0133
:10343000E052F847E531F10508F05EC0E25BFB4D74
:103440000C94E0220E94FF18812FDF91CF911F91F1
:1034500008954EEE58E16FED78E10E94F119F4CF36
:103460004FED58E16EEE78E1F8CF44E655E165E5C1
:1034700075E1F3CF45E555E164E675E1EECF46E849
:1034800055E165E775E1E9CF45E755E166E875E1A6
:10349000E4CF48EA55E167E975E1DFCF47E955E157
:1034A00068EA75E1DACF48E154E160E074E1D5CF34
:1034B00040E054E168E174E1D0CF81E00E94F2186D
:1034C000C3CF65E082E00E94F719BECF68E086E0D6
:1034D000FACF6EE089E0F7CF64E18FE0F4CF67E1E7
:1034E00085E1F1CF88E1EACF62E289E1ECCF83E2C6
:1034F000E5CF6AE285E2E7CF11E0A6CF0F931F93F5
:10350000CF93DF938C01EB0180911802811105C0EC
:103510000E94131D81E080931802AE01440F551FD5
:103520004C0F5D1F24E630E0B80180EB0E94F01DD7
:10353000DF91CF911F910F910895CF93DF93EC010D
:10354000FB018281882309F4D2C09E0130572332C7
:10355000310508F0B2C00E94320F9093B7028093F9
:10356000B602FE01E150F047E232F10520F4ED59D8
:10357000FB4D0C94E0228091B60281608093B602EC
:1035800093C08091B70288608093B7028DC080910C
:10359000B6028260F3CF8091B6028460EFCF809153
:1035A000B6028860EBCF8091B7028160EDCF809149
:1035B000B7028260E9CF8091B6028061DFCF80914F
:1035C000B6028062DBCF8091B6028064D7CF0E94C2
:1035D000CD098091B6028068D1CF8091B6028C600F
:1035E000CDCF8091B7028360CFCF8091B6028E7F1E
:1035F000C5CF8091B702877FC7CF8091B6028D7FFC
:10360000BDCF8091B6028B7FB9CF8091B602877F04
:10361000B5CF8091B7028E7FB7CF8091B7028D7FF3
:10362000B3CF8091B6028F7EA9CF8091B6028F7DF5
:10363000A5CF8091B6028F7BA1CF0E94CD0980914A
:10364000B6028F779BCF8091B602837F97CF809110
:10365000B7028C7F99CF8091B60282FB992790F9AF
:1036600021E0922790FB82F990FB83F987CF80912C
:10367000B702982F909591708E7F892B90FB81F9DE
:1036800083CF9091B602892F8F7B96FF806476CF8F
:103690000E94CD099091B602892F97FB87F9805837
:1036A0006DCF81E00E94AF0F8091B6029091B7027A
:1036B0000E94370F0E94CD0980E0DF91CF910895DD
:1036C00080E0F0CF9091B602892F8F7E94FF8061C9
:1036D00055CF9091B602892F8E7F90FF81604ECF9B
:1036E0009091B702892F877F93FF88604DCF81E04B
:1036F000E4CF8B3109F465C040F58B3071F078F47C
:10370000863009F447C020F4853059F180E00895EF
:10371000873009F448C08830C9F781E008958031C6
:1037200009F45DC068F48E3089F79091CA01892F41
:103730008B7F92FF84608093CA0182FD4CC0EDCFE5
:10374000863159F3893149F3E1CF8A3201F160F4CE
:103750008732B1F020F48E31C8F28D514CC08932DD
:10376000A9F60E94DF05D9CF833440F48A3308F0EC
:1037700041C0853329F0883381F2C8CF833431F6D4
:1037800081E090E00E94200A0E94CD09C6CF0E94ED
:10379000AC0FC3CF8091CA01807F8093CA0181E0C2
:1037A0008093190208959091CA01892F8E7F90FF0E
:1037B00081608093CA0180FDB0CF817F8093CA0170
:1037C000ACCF9091CA01892F8D7F91FF8260809349
:1037D000CA0181FFA2CF8091CA018160EFCF909191
:1037E000CA01892F877F93FF88608093CA0183FD78
:1037F000F2CF93CF895321E030E0A90102C0440FFA
:10380000551F8A95E2F7CA01BDCF80E008950E9456
:10381000051C0895CF93C82F80911902882331F099
:10382000813099F01092190280E00DC00E94450E7F
:103830008232D1F78C2F0E94051C811116C08C2F6B
:103840000E94791B8170CF9108950E94450E8232AB
:1038500089F38C2F0E94071C811105C0C43171F0BF
:1038600038F4CB3079F781E0EDCF81E090E0EACF1A
:10387000C93221F0C833B9F380E0E4CF10921902C5
:10388000FBCFCF93DF93EB0186319C4711F50E946C
:10389000450E9A81992399F08A7A91E009F490E093
:1038A00090931A02811109C089E20E941D0E0E94A4
:1038B000860E80E0DF91CF91089585E3F6CF809169
:1038C0001A02811104C089E20E94250EF0CF85E31F
:1038D000FBCF81E0EFCF0F931F93CF93DF93C42FE4
:1038E000D22FFC0182818823C9F040931D020E94DF
:1038F000431F90931C0280931B0280E28C0F883040
:1039000040F4C77081E001C0880FCA95EAF70E94B1
:103910007907DF91CF911F910F91089510911D02AA
:10392000141332C080911B0290911C020E945B1FF5
:10393000883C910548F5C0E2CD0F1D17B9F080E233
:10394000810F883040F4177081E001C0880F1A950C
:10395000EAF70E948007C83048F481E09D2F9770F5
:1039600001C0880F9A95EAF70E947907802F0E947C
:103970007007C83070F6D77081E001C0880FDA9503
:10398000EAF70E948007C5CF80E28C0F883008F6E6
:10399000C77081E001C0880FCA95EAF7F2CF0F9394
:1039A000DB0188519C4787309105A0F5FC01EB575E
:1039B000FB4D0C94E02206E221EE41EE6AE17CE749
:1039C000CD010E946B1C80E00F91089507E225EE67
:1039D00045EE6BE17CE7F4CF06E221EE40EE68E1D4
:1039E0007CE7EECF07E225EE44EE69E17CE7E8CF25
:1039F00006E221EE42EE6CE17CE7E2CF07E225EE43
:103A000046EE6DE17CE7DCCF08E221E045EE6EE1B9
:103A10007CE7D6CF12968C91882319F010921D0264
:103A2000D3CF81E0D1CF11B887E080B985B383606F
:103A300085BB86B7846086BF86B7816086BF86B740
:103A4000806486BF0895B0E0A0E0E9E2FDE10C9457
:103A50001E23B82EEB010E94431F6C01EE24E39459
:103A6000F12CC431D10560F025E0E22EF12CCF3FDE
:103A7000DC0731F0CE0164E170E00E9496227B0108
:103A800084EAA82E94E8992E16BEA6BE0E94431F73
:103A90008C0106B607FE0BC081B1887F8830F1F03B
:103AA00081B1887F8031D1F00FEF1FEF08C0C801CE
:103AB0000E945B1FE816F90660F70EEF1FEFCF3F7D
:103AC000DC0711F3C6010E945B1FC817D907E0F697
:103AD000C801CDB7DEB7EBE00C943A23B3B896BE7D
:103AE0000E94431F8C0106B607FE09C081B1887F82
:103AF000883111F08034C1F610E000E0E9CFC80150
:103B00000E945B1FE816F90670F7D7CF0F931F933B
:103B1000CF93DF93EB0183B984E886BF0E94431FF4
:103B20008C0106B607FE10C021B1287F81E090E02D
:103B3000283211F490E080E0919581959109DF9110
:103B4000CF911F910F910895CF3FDC0751F3C8012A
:103B50000E945B1FC817D90720F78EEF9FEFEFCFAA
:103B60000F931F93CF93DF93EC0184EC86BF0E94E9
:103B7000431F8C0106B607FE07C083B190E0DF91BA
:103B8000CF911F910F910895CF3FDC0799F3C801A2
:103B90000E945B1FC817D90768F78EEF9FEFEFCF22
:103BA0000F931F93CF93DF93EC0184E886BF0E94AD
:103BB000431F8C0106B607FE07C083B190E0DF917A
:103BC000CF911F910F910895CF3FDC0799F3C80162
:103BD0000E945B1FC817D90768F78EEF9FEFEFCFE2
:103BE000B0E0A0E0E6EFFDE10C9421236B018A0137
:103BF0007901B9010E94231DE6010C0D1D1DC0179E
:103C0000D10711F097FF07C024E926BFCDB7DEB773
:103C1000E8E00C943D23B70189910E94861DEFCF07
:103C2000B0E0A0E0E6E1FEE10C942123EB018A0183
:103C30006901B90181600E94231DF12CE12C015022
:103C40001109E016F106D8F497FF0CC024E926BF4D
:103C50001816190614F490E080E0CDB7DEB7E8E05E
:103C60000C943D23C6010E94B01D97FD04C0FE01C7
:103C7000EE0DFF1D80832FEFE21AF20AE2CF97FDCF
:103C8000E5CFC6010E94D01D97FDE0CFC00FD11F28
:103C90008883DCCF90931B0180931A010895909341
:103CA0002302809322020895E0912202F0912302E0
:103CB000309729F00190F081E02D0995089580E07A
:103CC0000895E0912202F0912302309721F00280C2
:103CD000F381E02D09950895A3E0B0E0E2E7FEE16D
:103CE0000C942723209120023091210228173907B4
:103CF000A1F09093210280932002E0912202F091A2
:103D00002302309751F023E029839B838A83068026
:103D1000F781E02DCE01019609952396E2E00C94FF
:103D20004323A3E0B0E0E7E9FEE10C9427232091D0
:103D30001E0230911F0228173907A1F090931F022D
:103D400080931E02E0912202F0912302309751F0FD
:103D500024E029839B838A830680F781E02DCE01AE
:103D6000019609952396E2E00C9443239C012E5F73
:103D70003F4FAC01485F5F4F80E02417350709F4DF
:103D80000895F90191919F019923B9F38F5FF5CFC0
:103D9000662349F0FC01329608962191261729F0F6
:103DA000E817F907D1F780E0089581E008959C01B4
:103DB000FC0132969FEF80E04191461751F09F3F02
:103DC00019F4411101C0982F8F5F8630A9F79F3FEA
:103DD00009F40895290F311D97FD3A95F901628381
:103DE0000895FC01329608962191261303C0DF0145
:103DF00011971C92E817F907B9F708950E94D71E8A
:103E000008950E94F11E0895029626E0FC01119289
:103E10002A95E9F70895089508950E940C1F0895C2
:103E2000089508950E940B1F0895CF930E94101FBC
:103E30000E9473040E94111FC0E08C2F0E94F404A2
:103E4000892B31F4CF5FC630C1F780E0CF91089560
:103E500081E0FCCF84B7806884BF84B7806884BF6A
:103E600008958091260281110E94450608950E94BE
:103E7000CD090E944C0608958BE083BF8BEB8CBF6D
:103E800082E089BF08952FB7F8948091E102909164
:103E9000E202A091E302B091E4022FBF08952FB790
:103EA000F8946091E1027091E2028091E3029091B6
:103EB000E4022FBF08959C014FB7F8948091E1026E
:103EC0009091E202A091E302B091E4024FBF821B05
:103ED000930B089578941F921FB61F9211248F930D
:103EE0009F93AF93BF938091E1029091E202A091E2
:103EF000E302B091E4020196A11DB11D8093E1029D
:103F00009093E202A093E302B093E402BF91AF91D9
:103F10009F918F911F901FBE1F90189560E081E0C8
:103F200090E00E94042488E19CE00FB6F894A895E4
:103F300081BD0FBE91BDFFCF88E19CE00FB6F89424
:103F4000A89581BD0FBE91BDFFCF0E94431F9093E6
:103F500025028093240208950E9461228B9A80E0BA
:103F6000815019F48B9878940895A895E7EBFBE0BD
:103F70003197F1F700C00000F3CF0E9489200E9422
:103F80004F1E2FEB84ED91E0215080409040E1F7EF
:103F900000C00000089580910C03882311F1109255
:103FA0000C030E94431F909325028093240280916A
:103FB0002602882341F0109226020E94371F80912A
:103FC0002602811112C00E94712180911203882360
:103FD00029F08091F00284FD0E94F60F0E943020AB
:103FE000089580912602882301F10E94311F0E94CA
:103FF000151F8823A9F3F89421B3939A822F8C601C
:1040000081BB92B33CE0932792BB4FE58AEE90E0F0
:10401000415080409040E1F700C0000082B3832708
:1040200082BB21BB9398789408958091240290914B
:1040300025020E945B1F069708F4C1CF81E08093A0
:1040400026020E94311FBBCF8091B50208952091B6
:10405000290324FF03C063E00E946C2108950895A2
:10406000CF93DF93CAE0D0E08091F00284FF1AC0C2
:104070008091320290913302981789F028E0829F54
:10408000C001112468E08C5C9D4F0E9467218091E3
:10409000320290E001968F70992780933202DF916F
:1040A000CF9108950E94712187EB9BE00197F1F772
:1040B00000C000002197C1F6F2CFCF93DF93EC014F
:1040C000A0913302B0E0CD0101968F709927209125
:1040D0003202281779F093E0AA0FBB1F9A95E1F7F7
:1040E000AC5CBD4F98E0FE0101900D929A95E1F70E
:1040F000809333020E9471210E94302088E0FE01EB
:10410000AAE2B2E001900D928A95E1F7DF91CF919A
:1041100008958BE790E00895FC01808180768032DD
:10412000F1F48181813061F484819581892BB9F426
:104130008AE292E090930E0380930D0388E0089545
:10414000823041F484EB92E090930E0380930D0350
:1041500081E008958A3029F483818093B40280E05D
:1041600008958930E1F7828193818115924069F445
:1041700084819581892B49F481E08093290286818D
:10418000978190932802809327028FEF0895FC0176
:104190008091270290912802892B61F08091290259
:1041A000813041F490819093B502109228021092D0
:1041B000270208958FEF08950895FC0193819330AD
:1041C00051F130F49130B9F09230E9F080E0089587
:1041D0009132D9F19232D1F784819581009709F417
:1041E00045C0019799F783EF94E090930E03809375
:1041F0000D0382E3089585EC94E090930E03809381
:104200000D0382E108958AE894E090930E03809371
:104210000D038BE308958281813079F0882329F0A2
:104220008230A1F687ED94E00AC08FEE94E090937F
:104230000E0380930D0384E0089583EE94E0909341
:104240000E0380930D038AE008958281882331F064
:10425000813009F0BBCF85EB94E002C08CE994E09B
:1042600090930E0380930D0389E0089585E295E015
:1042700090930E0380930D0380E408951F93CF93D2
:10428000DF93E82F792F162FEA01888184FF1CC065
:10429000298188E828272983CE010296DC012E2F68
:1042A000372F512F5E0FF90121912D939F01452F3B
:1042B0004E1B1416C4F3612F0E94E7021C5F188383
:1042C000DF91CF911F9108958AE58883E5CF40EF74
:1042D00052E00E943E21089549E253E00E943E21AF
:1042E0000895CF93DF9360910F03635067FD12C071
:1042F00080910B03CCE0D0E0C81BD109CD5EDC4F30
:1043000080910A03803108F054C0CE010E94DC2065
:1043100010920F038091840084FF3EC0809183003F
:104320008F3FD1F1C82F893008F0C8E0982F9C1B2F
:10433000909383009091E50228E892279093E502FC
:104340008823E9F080910D0390910E0320910903D9
:1043500026FFAEC0FC012C2FA6EEB2E034913D93B7
:1043600031962150D9F79C012F5F3F4F8FEF8C0F73
:10437000820F932F911D90930E0380930D036C2F4A
:1043800086EE92E00E94E702CC5FCC3019F08FEF0E
:1043900080938300C093840084E190B39C7031F4D7
:1043A0008150D9F71092100310920803DF91CF913A
:1043B00008958D3209F069C0683009F0A9CF83EC07
:1043C0008093E5028AE58093840010920903888136
:1043D000807671F0CE010E948C208F3FC1F49881CD
:1043E00097FD8E8190E8909309038093830090CF8E
:1043F0002A811092EE029981911111C01092EF0260
:104400002EEE32E082E030930E0320930D039F8165
:104410009111EBCF9E81981740F7892FE6CF953009
:1044200029F4209310032EEE32E0EDCF963099F46C
:104430009B81913021F4CE010E94DD2008C0923092
:10444000D1F39330C1F39132B1F39232A1F390E4FE
:1044500090930903C2CF983089F0993019F42093D2
:104460001203E1CF9A3071F09B30E9F69BE4909310
:10447000F10290932A039093FD02D5CF22E133E01D
:1044800081E0C1CF2EEE32E0FBCF8091090387FFA0
:104490003FCFCE010E94C7208F3F21F48EE1809351
:1044A000840036CF882309F433CF1092830030CFB5
:1044B000DC012C2FE6EEF2E03D9131932150E1F743
:1044C00052CFCF93DF9385B7886085BF8BB7806865
:1044D0008BBFC0EFD2E08BE48983A9E2B3E01196F1
:1044E0008C931197ECEFF2E081838AE588838C93BB
:1044F0008083DF91CF910895991B79E004C0991FC3
:10450000961708F0961B881F7A95C9F7809508952D
:1045100087FB082E062687FD819567FD61950E9421
:104520007C220EF4919507FC81950895AA1BBB1B74
:1045300051E107C0AA1FBB1FA617B70710F0A61BA3
:10454000B70B881F991F5A95A9F780959095BC01C4
:10455000CD01089597FB072E16F4009407D077FD40
:1045600009D00E94962207FC05D03EF490958195D3
:104570009F4F0895709561957F4F0895A1E21A2E7F
:10458000AA1BBB1BFD010DC0AA1FBB1FEE1FFF1FF7
:10459000A217B307E407F50720F0A21BB30BE40B47
:1045A000F50B661F771F881F991F1A9469F760958E
:1045B0007095809590959B01AC01BD01CF01089548
:1045C000EE0FFF1F0590F491E02D09940E94EE225A
:1045D000332312F48A1B9B0B0C94FF22A29FB00181
:1045E000B39FC001A39F700D811D1124911DB29F27
:1045F000700D811D1124911D08950E94EE22B7FFB8
:104600000895821B930B08950E94EE22A59F900DA2
:10461000B49F900DA49F800D911D11240895B7FFA4
:104620000C9404230E940423821B930B08952F9261
:104630003F924F925F926F927F928F929F92AF9232
:10464000BF92CF92DF92EF92FF920F931F93CF937F
:10465000DF93CDB7DEB7CA1BDB0B0FB6F894DEBF16
:104660000FBECDBF09942A88398848885F846E843C
:104670007D848C849B84AA84B984C884DF80EE8086
:10468000FD800C811B81AA81B981CE0FD11D0FB68F
:10469000F894DEBF0FBECDBFED0108958F929F92BB
:1046A000AF92BF92CF92DF92EF92FF92CF93DF93C0
:1046B000EC01688179818A819B8161157105810591
:1046C000910521F464E279ED8BE597E02DE133EF7C
:1046D00041E050E00E94212449015A019B01AC01B4
:1046E000A7EAB1E40E9404236B017C01ACEEB4EFB5
:1046F000A50194010E941223DC01CB018C0D9D1DAC
:10470000AE1DBF1DB7FF03C00197A109B048888344
:104710009983AA83BB839F77DF91CF91FF90EF901E
:10472000DF90CF90BF90AF909F908F9008950E94A0
:104730004E23089580E690E00E944E230895B0E055
:10474000A0E08093600090936100A0936200B0931A
:1047500063000895FC014150504030F0019006166E
:10476000D1F73197CF010895882799270895FB0144
:10477000DC0104C08D910190801921F4415050401A
:10478000C8F7881B990B0895FB01DC0102C001905A
:104790000D9241505040D8F70895E199FECF9FBB4C
:1047A0008EBBE09A99278DB30895A6E1B0E044E06E
:1047B00050E00C941324A8E1B0E042E050E00C94E7
:1047C0001324262FE199FECF9FBB8EBBE09A019761
:1047D0000DB2021631F02DBB0FB6F894E29AE19AB1
:1047E0000FBE08950396272F0E94E2230E94E12323
:1047F000252F0E94E223242F0C94E2230196272FD9
:104800000E94E2230C94E123262FE199FECF9FBB67
:104810008EBB2DBB0FB6F894E29AE19A0FBE0196BB
:104820000895DC01CB01FC01E199FECF06C0FFBB7E
:10483000EEBBE09A31960DB20D9241505040B8F760
:104840000895052E97FB1EF400940E94382457FD0E
:1048500007D00E94BE2207FC03D04EF40C943824EB
:1048600050954095309521953F4F4F4F5F4F08959C
:1048700090958095709561957F4F8F4F9F4F0895CC
:10488000F894FFCFC207C207F307F3078508220891
:1048900022082208A108120921092109221A291A2D
:1048A000301A351A3A1A3F1A441A491A4E1A531A2C
:1048B000581A5D1A611A661A691A6C1A6F1A721AF6
:1048C000741A771A791AF51A691BFD1AC71ACB1AC6
:1048D000011BCF1A051B111BDB1A621BDF1A151BEC
:1048E000E31A191B411BE71A1D1B481BED1A231B5A
:1048F0002B1BD31A091BD71A0D1BF11A271B371BA9
:10490000511B601BC11AF91A701BEC1CF21CDB1C3A
:08491000E61CF81CFE1C041D4E
:1049180001000000FFFFAA01010102000C000C0CBD
:1049280001191A1B1C1D1E1F20212224205D202F67
:10493800202720FF5AE200E900EA00B500B600B7D8
:1049480000CD008301CC008A019201940121022349
:104958000224022502260227022A02B300B4006FAD
:104968000070009F01CB01818283E200E900EA0028
:10497800B500B600B700CD008301CC008A019201D2
:1049880094012102230224022502260227022A0278
:10499800B300B4006F0070009F01CB0181828300D7
:1049A80001020202020606060909090909090F0F90
:1049B8000F0F0F0F15151518191919191919191994
:0A49C800191923242525252525258E
:00000001FF
