:100000000C94B1020C94CE020C94E9020C94CE0232
:100010000C94CE020C94CE020C94CE020C94CE0220
:100020000C94CE020C94CE020C946D1F0C94CE0254
:100030000C94CE020C94CE020C94CE020C94CE0200
:100040000C94CE020C94CE020C94CE020C94CE02F0
:100050000C94CE0200000000000000000000000030
:1000600000002800E700E600500051004F00025158
:100070000000E000E200E3002C000151230000003A
:1000800011001000360037003800297252000000BD
:10009000E1001D001B0006001900050000000B0018
:1000A0000D000E000F003300340028000000E000B7
:1000B00004001600070009000A00000018000C00E8
:1000C000120013002F003000310000002B0014003C
:1000D0001A00080015001700000024002500260063
:1000E00027002D002E002A00000035001E001F00F2
:1000F00020002100220000001C0000000000000081
:1001000000000000000000000000000000000000EF
:10011000000000000000AE00010001004A004E0097
:100120004D0001000000010001000100010001007C
:100130003F000000BB0001000100010001000100C0
:100140004B0000000100010001000100010001005E
:1001500000005000510052004F000100010001005A
:100160000000010001000100AA00010001000000E0
:10017000A90001000100BC002900010001000000ED
:100180000100010001000100010001000000400029
:10019000410042004300440045004C00000029009B
:1001A0003A003B003C003D003E0000000100000022
:1001B000000000000000000000000000000000003F
:1001C00000000000000000000000C35C0000000010
:1001D000C55CCB5CC45C01000000000000000000B6
:1001E000C15C0000BF5C0000D35CCF5C0000CD5C54
:1001F000C95CC75CCA5C00000000D05CD45CD55C04
:10020000D15CCE5C0000270200000000CC5CC85C22
:10021000C65C0000000000000000000000000000BC
:1002200026020000000000000000000000000000A6
:1002300000000000C45C00000000000000002F026D
:100240000000BC00AE00BB00A800AA00A900CE5C64
:1002500000002900BE00BD0000000000BE5C0000E0
:10026000300200000000000000000000000000005C
:1002700000047F3F1F643214643214783C1E1E1445
:100280000A052223252628292A2C2D2F3032333502
:1002900036383A3B3D3E4042434547494A4C4E5032
:1002A00051535557595A5C5E6062646668696B6D5C
:1002B0006F71737577797B7D7F81838587898A8C60
:1002C0008E90929496989A9C9E9FA1A3A5A7A8AA67
:1002D000ACAEAFB1B3B4B6B8B9BBBCBEBFC1C2C39C
:1002E000C5C6C7C9CACBCCCDCED0D1D2D2D3D4D536
:1002F000D6D7D7D8D9D9DADADBDBDBDCDCDCDCDC5F
:10030000DDDDDDDDDCDCDCDCDCDBDBDBDADAD9D936
:10031000D8D7D7D6D5D4D3D2D2D1D0CECDCCCBCAC4
:10032000C9C7C6C5C3C2C1BFBEBCBBB9B8B6B4B3EA
:10033000B1AFAEACAAA8A7A5A3A19F9E9C9A989680
:100340009492908E8C8A89878583817F7D7B797753
:100350007573716F6D6B6968666462605E5C5A5933
:1003600057555351504E4C4A4947454342403E3DF4
:100370003B3A3836353332302F2D2C2A2928262582
:100380002322FFAA7F554000010101010101010163
:100390000102020202020202020203030303030338
:1003A0000303040404040404040505050505060606
:1003B00006060607070707070808080809090909C4
:1003C0000A0A0A0B0B0B0C0C0C0D0D0D0E0E0E0F6A
:1003D0000F0F1010111111121213131414151516FA
:1003E000161717181819191A1A1B1B1C1D1D1E1E6B
:1003F0001F202021222223242425262627282929BC
:100400002A2B2C2D2D2E2F303132323334353637E6
:1004100038393A3B3C3D3E3F4041424344454647E4
:1004200048494A4C4D4E4F50515354555658595ABD
:100430005B5D5E5F616264656668696B6C6D6F7061
:1004400072737577787A7B7D7E8082838587888AD0
:100450008C8E8F91939596989A9C9EA0A2A3A5A707
:10046000A9ABADAFB1B3B5B7BABCBEC0C2C4C6C903
:10047000CBCDCFD1D4D6D8DBDDDFE2E4E7E9EBEEBC
:10048000F0F3F5F8FAFDFF09023B00020100A0FAC3
:1004900009040000010301010009210101000122FA
:1004A0004000070581030800010904010001030061
:1004B0000000092101010001223200070583030821
:1004C000000112011001000000084D5964530002A0
:1004D000010200010A0353005000360034000000FE
:1004E0000A0359004D0044004B00000004030904B6
:1004F00005010980A101850319012AB7001501260C
:10050000B700950175108100C0050C0901A1018596
:100510000419012AA002150126A002950175108177
:1005200000C005010906A101050719E029E715002A
:10053000250195087501810295017508810305075C
:10054000190029FF150026FF009506750881000592
:100550000819012905950575019102950175039109
:1005600003C011241FBECFE5D8E0DEBFCDBF11E030
:10057000A0E6B0E0E4EFF7E402C005900D92AC30E5
:10058000B107D9F722E0ACE0B1E001C01D92A13F74
:10059000B207E1F70E94DB120C94EC230C940000EC
:1005A000A82FB92F80E090E041E050EA609530E05C
:1005B00009C02D9182279795879510F0842795275C
:1005C000305EC8F36F5FA8F30895EADF8D939D93C3
:1005D0000895CF93CFB7CF93C395839BE9F7839BC0
:1005E0000EC0839B0CC0839B0AC0839B08C0839B67
:1005F00006C0C091C802C395C093C802A6C0DF93CD
:10060000C091C702DD27C153DD4F839B02C0DF913C
:10061000E6CF2F930F931F9300B32FEF03FB20F927
:100620004F933F9310B34FEF012703FB21F93BE0BA
:1006300031C04E7F012F10B3216028C0102F4D7F95
:100640002260000000B329C04B7F2460012F00000E
:1006500010B32BC010B3477F28602AC04F7E00B371
:1006600020612CC04F7D10B320622FC04F7B00B3A0
:10067000206432C0422700B349934FEF0000102797
:1006800013FB20F910B31C70C9F1297F91F20127E7
:1006900003FB21F900B3237F89F2315058F1102771
:1006A00013FB22F910B3277E79F2012703FB23F90C
:1006B0002F7C81F200B3102713FB24F92F7971F2FC
:1006C00000C010B3012703FB25F92F7359F200C0B6
:1006D00000B3102713FB26F9223040F200C010B3FC
:1006E000012703FB27F9243028F64F77206810B341
:1006F0000000F9CF10E81ABF00271CC03B5031950D
:10070000C31BD04010E81ABF0881033C11F10B3421
:1007100001F12091C4021981110F1213EDCF4A810A
:10072000441F093669F10D3211F0013E29F74F706F
:1007300009F0042F0093CD023F914F911F910F912B
:100740002F91DF91CAB7C7FD47CFCF91CFBFCF91D0
:1007500018952091CD02222379F31091CB02112319
:1007600009F044C034300AF443C03093CB022093E4
:10077000C6021091C7023BE0311B3093C70238C05C
:100780000091CB02013094F50AE54F7049F43091A5
:10079000840034FD2FC000938400C1EAD2E02EC053
:1007A000433059F0443091F03091AC0234FD22C016
:1007B0000093AC02CDEAD2E021C03091E50234FDD5
:1007C00019C00093E502C6EED2E018C03091B8021D
:1007D00034FD10C00093B802C9EBD2E00FC02795DA
:1007E000A8F45150A9F4220F0000F9CF4AE503C044
:1007F00042ED01C0432FC4E1D0E032E011B31C60F0
:10080000939A11BB02B320E41CE05F93012756E0EA
:1008100002BB279520F4515021F4220FF9CF012774
:1008200056E000003B5A02BBD0F2279528F4515005
:1008300029F4220F0000F9CF012756E0279502BBCB
:1008400020F4515021F4220FF9CF012756E02991CD
:10085000332302BB21F6037F1091CC02110FC65146
:10086000D04002BB11F01093C40210E81ABF086018
:1008700011B3137F402F437F5F9100C000C002BBC4
:1008800011BB42BB59CF08950E94430408950895B7
:100890000E94470408958FEF87BB88BB1ABA94B3B0
:1008A0009B7B94BB8F988BBB85B38C6F85BB979AD2
:1008B0000E94FC0490E09093610080936000EBE163
:1008C000F1E0AFE0B1E0119211921D921D9281E032
:1008D000E732F807C1F786E00E9494120E94A9054A
:1008E0000895A3E0B0E0E7E7F4E00C9437238091AB
:1008F000600090916100892B71F080910E018F5FF3
:1009000080930E01811107C00E94FC0490E0909337
:100910006100809360003FE0A32E31E0B32EF12C04
:10092000E12CD12C42E1C42E88248394912C6FE7D2
:10093000762EC98284010E2C01C0000F0A94EAF7BA
:10094000102F10951A8324E630E042E050E0BE01FB
:100950006F5F7F4F80E40E94111E9093610080932F
:10096000600007BB18BB89B38095082F10E079821F
:1009700024E630E041E050E0BE016F5F7F4F80E44D
:100980000E94311E898190E0809590959695982FD0
:1009900088279795879580789F73802B912BF501F9
:1009A000219131915F012817390729F032979183FE
:1009B0008083DD24D394FFEFEF1AFF0A86E0E81668
:1009C000F10409F0B6CF2D2D46E06BE171E08FE028
:1009D00091E00E9495120E94AC058D2D2396EDE0CA
:1009E0000C945323E82FF0E0EE0FFF1FE55EFE4F5F
:1009F0008081918108950895A3E0B0E0E2E0F5E000
:100A00000C9441238FEF9FEF9093610080936000DF
:100A10008091270181110EC00E94341D81E08093D6
:100A200027012FEF8EE994E2215080409040E1F7BA
:100A300000C0000019821A821FEF1B8324E630E0F9
:100A400043E050E0BE016F5F7F4F80E40E94111EC3
:100A50009093610080936000892B31F58CE089834D
:100A60001A821B8324E630E043E050E0BE016F5F52
:100A70007F4F80E40E94111E90936100809360007C
:100A8000892B91F484E189831A831B8324E630E067
:100A900043E050E0BE016F5F7F4F80E40E94111E73
:100AA0009093610080936000809160002396E3E062
:100AB0000C945D2381E0089581E008950E945C0517
:100AC000089508950E9461050895A5E0B0E0EBE661
:100AD000F5E00C94412349835A8330912D0189819B
:100AE0009A81311119C0662399F0222389F00E945E
:100AF000F60A182F682F89819A810E94D20A69818B
:100B00007A81812F0E9452112596E3E00C945D2397
:100B10000E94E40A182FF3CF0E94F60A69817A81B5
:100B2000F1CFFC01262F4081518162817381848144
:100B30000E946505089581E00895CF93DF93EC014D
:100B400060E00E949105BE010E946205DF91CF9195
:100B500008950E94440408950E9448040895089549
:100B60000E949D090E94AF052FEB87E299E021507A
:100B700080409040E1F700C0000008950E94B00559
:100B80000E94911F08950E94B0050E949F1F089522
:100B90000F931F93CF93DF938C0161E00E94910527
:100BA000EC01B8010E945E05811106C080E0DF9172
:100BB000CF911F910F910895B801CE010E94E21CC0
:100BC0008823A1F3B801CE010E941E1A882371F375
:100BD000B801CE010E94541C882341F3B801CE0114
:100BE0000E943719882311F3F8018281882361F06C
:100BF000CB35FDE5DF0701F158F4C115ECE5DE0763
:100C000091F0CF3DDC4591F0C8010E945A05CFCF4D
:100C1000CD358DE5D80769F090F0C83ADD45A1F7EC
:100C20000E94C305C3CF0E94BE05C0CF0E949A0F89
:100C3000F7CF0E94D80EE8CF0E94E20EE5CF0E94C7
:100C4000E60EE2CF0E94101F0E945D060E94AD17C3
:100C500008950E9461060E9484180E94151F08953D
:100C600008950E943006089581E00895CF93C82F1B
:100C70000E943406882349F0C0FF09C0909AC1FF42
:100C800008C0919AC2FF07C0969ACF910895909894
:100C9000F6CF9198F7CF9698F8CF889A9098899A3E
:100CA00091988E9A96980895CF93C82F0E943106F6
:100CB0008C2F0E943606CF91089580E00E94540642
:100CC00008950E94751E0E9454060895CF930E94B5
:100CD000751EC82F809128018C1779F0C0932801C8
:100CE0000E94521F6093290170932A0180932B0167
:100CF00090932C018C2F0E945406CF910895ABE065
:100D0000B0E0E5E8F6E00C9442234F83588769870A
:100D10007A878B8761110E94390E1E821D8285E0C1
:100D2000FE013796DE01119601900D928A95E1F74A
:100D30008C819D81892B61F449815A816B817C81F1
:100D40008D819E810E94620D2B96E2E00C945E23C1
:100D500089819A8189238F3F79F3CE0101960E9480
:100D60009B058111E9CFF0CFFC01808191810E9428
:100D7000280B0895CF93C82F8823E1F08CEF8C0FB8
:100D8000813AD0F48C2F0E941D1C811113C06C2F4E
:100D900080916200909163000E94CB1E882329F00D
:100DA0008C2F0E94F90D0E945A0E8C2F0E94F10D7B
:100DB0000E945A0ECF91089580E28C0F883048F43B
:100DC000C77081E001C0880FCA95EAF70E941C0E27
:100DD000EFCFEBE5EC0FE33040F4F0E0ED54FF4FE4
:100DE000808190E00E948D1EE5CFC85AC73110F770
:100DF000EC2FF0E0EE0FFF1FEB57FF4F808191814A
:100E00000E94A31ED7CF882339F19CEF980F913A07
:100E100028F40E94F90D0E945A0E089590E2980F4E
:100E2000983050F4877091E001C0990F8A95EAF7E5
:100E3000892F0E94220EEFCF9BE5980F933028F464
:100E400090E080E00E948D1E0895885A873120F43A
:100E500090E080E00E94A31E08951F93CF93DF933C
:100E6000182FEB010E94BA06209739F4812F0E94B7
:100E70000307DF91CF911F91089587EB9BE00197C6
:100E8000F1F700C000002197EFCF70E060E08933F8
:100E900011F460E570E00E942D070895882321F089
:100EA0000E941C0E0E945A0E0895882321F00E9471
:100EB000220E0E945A0E0895B0E0A0E0E2E6F7E0AC
:100EC0000C943B236C01D62FC72FFC011281F580B7
:100ED000F2949FE0F9220E94120EE82E8823B9F0C6
:100EE000E12E1123A1F08C2F807F803421F080E24D
:100EF0008D0F8830D0F08091730282FF16C082E09F
:100F00000E94A70E0E94120E91E0E82EE926BC2E48
:100F1000B2948FE0B822FBE0FB1508F468C0EB2D1B
:100F2000F0E0E251FC4D0C94FB22E12CF0CF0C2FB1
:100F30000F70C07F11F00295007F112399F00023FC
:100F400059F080E28D0F883010F0D11107C0802F4A
:100F50000E941C0E0E945A0E8D2F41C0802F0E94AD
:100F60002C0EF8CF8D2F0E940307002309F43FC0F9
:100F700080E28D0F883010F0D11104C0802F0E94C4
:100F8000220E03C0802F0E94320E0E945A0E2FC0E4
:100F90000C2F0F70C07FC03211F00295007FDD234F
:100FA00081F0D13009F463C0112309F46DC0FF2032
:100FB00009F463C0F601858180FFCECF8F708583F1
:100FC0005CC08091730282FD33C0112359F000236D
:100FD00029F0802F0E941C0E0E945A0E80E00E9471
:100FE000BA0605C080E00E9403070111C7CFEB2DB0
:100FF000E850FF0B349720F40E94751E0E9454069F
:10100000EE2089F00E940E0E80FD0DC0F6011282C6
:101010000E94080E0E94300AC6010E9461090E94C7
:10102000080E0E94400ACDB7DEB7E9E00C945723C2
:10103000112389F0F11006C00E943C0E802B0E9403
:101040004E07D5CF21E0F212F7CF0E943C0E802B45
:101050000E94430ECCCFF11006C00E94500E802F8C
:101060000E945507C4CF31E0F31609F2F6CF1123E1
:1010700031F085E08F1508F4BACF802FE0CF94E0EF
:101080009F1508F4B4CFEBCFFF2049F3D93349F4CF
:10109000FFEF2DEE32E0F15020403040E1F700C08C
:1010A00000008D2F0E940307A2CF8C2F8695869576
:1010B000837069F0813009F09ACF8D2F9C2F937047
:1010C000111102C090E080E00E94A31E90CF8D2FEE
:1010D0009C2F9370111102C090E080E00E948D1E41
:1010E00086CF8C2F8370A1F5111181CF4D2F4295A2
:1010F00046954770440F440F2D2F2F7030E0042E7B
:1011000002C0220F331F0A94E2F790E080E0D4FF80
:1011100009C08FE090E002C0880F991F4A95E2F75E
:1011200080959095C695C695C370822B932BC2303F
:1011300049F058F4C13019F00E94FE0958CF0E94BE
:10114000F50955CF0E94070A52CF0E94F2094FCFEE
:101150008695112311F08C2F8170882309F447CFD5
:101160004D2F429546954770440F440F2D2F2F70F9
:1011700030E0042E02C0220F331F0A94E2F790E001
:1011800080E0D4FF09C08FE090E002C0880F991F73
:101190004A95E2F780959095C695C695C370822BC7
:1011A000932BC23049F058F4C13019F00E946B0AF9
:1011B0001ECF0E94620A1BCF0E94740A18CF0E94A1
:1011C000160A15CFCF70112329F08C2F0E94300AF8
:1011D0008D2F35CF8D2F0E9455078C2F0E94400AEE
:1011E00006CFD23F51F160F4D03FB9F0D13F81F04A
:1011F000112309F449C0F110AFCE8C2F8F7121C09B
:10120000D33F11F1D43FA1F78091730282FD26C034
:101210008C2F8F71112311F314C0112349F084E036
:101220008F1508F4E4CE8C2F8F710E94520ADFCE06
:1012300095E09F1508F4DBCEF6CF8C2F8F7111113E
:10124000CDCF0E94300AD3CE112329F08C2F8F717D
:101250000E94240ACCCE0E941F0AC9CE112349F055
:10126000CF718C2F0E94300A63E08C2F0E94890E70
:10127000BECE81E00E94A70EE1E0EF1508F0B7CEE8
:1012800082E00E94A70EB3CEF11000CF8C2F8F7199
:10129000A5CF0F931F93CF93DF93EC0168817981E2
:1012A0008A810E94330B8C010E947D0A0E94F10901
:1012B000B801CE010E945C07DF91CF911F910F9181
:1012C0000895CF93DF93EC018B819C81892B29F0CA
:1012D0008881998189238F3F51F4DF91CF910895BF
:1012E000CE010E944909CE010E949D05F6CFCE0194
:1012F0000E94C8058111F4CF0E94120E882369F361
:101300008A81882351F38091730282FFE6CF82E0C5
:101310000E94A70EE2CF90E080E00E948D1E90E038
:1013200080E00E94A31E0E94390E0E945A0E08956A
:101330000E94010E0E948B0908950E94290E0E94AE
:101340009809089592959F70963091F058F4925FA5
:101350009F70923058F4803F19F030F4883E30F49A
:1013600081E008959A5FF4CF843FD1F380E008953F
:10137000883EB0F3813FD1F7F3CFFC0183819481A4
:10138000892B29F08081918189238F3F11F480E09E
:101390000895808191810E94280B0E94A2090895DE
:1013A000A5E0B0E0E6EDF9E00C9442232596E2E0FA
:1013B0000C945E23A6E0B0E0E0EEF9E00C9442234A
:1013C0002696E2E00C945E2308950E94E4090895B5
:1013D0000E94E50990936101809360010E948B094E
:1013E000089508950E94E8090895209160013091C0
:1013F0006101822B932B0E94E809089520916001DE
:1014000030916101822393230E94E809089520917D
:10141000600130916101822793270E94E8090895B5
:101420000E94E40908950E94100A08950E94130A78
:1014300090935F0180935E010E948B09089590E074
:1014400080E00E94160A089521E030E0A90102C060
:10145000440F551F8A95E2F7CA010E94160A0895A3
:1014600021E030E002C0220F331F8A95E2F780911D
:101470005E0190915F01822B932B0E94160A0895C2
:1014800021E030E002C0220F331F8A95E2F7209559
:10149000309580915E0190915F01822393230E9499
:1014A000160A089521E030E002C0220F331F8A950A
:1014B000E2F780915E0190915F01822793270E945D
:1014C000160A089520915E0130915F01822B932BC3
:1014D0000E94160A089520915E0130915F018223D7
:1014E00093230E94160A089520915E0130915F01B6
:1014F000822793270E94160A08950895262F2770A1
:1015000091E001C0990F2A95EAF723E07695679557
:101510002A95E1F7660F771F660F771FFA01E60F2E
:10152000F71F50E040E0682F70E08191DF011197D4
:101530009B01042E02C0369527950A94E2F721708C
:1015400021952827292328272C934F5F5F4F44306C
:10155000510559F70895A82FA77023E09695879510
:101560002A95E1F7880F991F880F991FFB01E80F53
:10157000F91F50E040E080E0219130E00A2E02C0E7
:10158000369527950A94E2F721703327042E01C07F
:10159000220F0A94EAF7822B4F5F5F4F44305105C8
:1015A00059F70895262F963070F48F3060F4682F25
:1015B00070E08FE0989F600D711D11244EE251E0A4
:1015C000822F0E947E0A0895292F963068F48F306A
:1015D00058F490E06EE271E03FE0239F800D911D92
:1015E00011240E94AB0A089580E00895B0E0A0E0C5
:1015F000ECEFFAE00C943B237C0100915E0110912A
:101600005F018091600190916101082B192BCFE05F
:10161000D0E0CC24C394D12CBC2EC6010C2E02C029
:10162000880F991F0A94E2F780239123892B49F4AC
:10163000219790F7B12C8B2DCDB7DEB7E9E00C9454
:101640005723B7018C2F0E946D11019789F3F3CFB7
:10165000CF93DF93EC010E94F60ABE010E946D1148
:10166000DF91CF9108951F93CF93DF93EB0190917A
:101670002D01992339F0CB010E94280BDF91CF91E6
:101680001F910895882369F0CB010E94F60A182F54
:10169000682FCE010E94D20ABE01812F0E946D11D7
:1016A000EDCFCB010E94E40A182FF6CF1F93CF9302
:1016B000DF93C091620116E0809163018C1304C036
:1016C000DF91CF911F910895D0E01C9FF0011D9FE5
:1016D000F00D1124EC59FE4F4081518162817381DC
:1016E000848195810E94DA092196C770E5CF4091E7
:1016F00094015091950160919601709197018091AC
:101700009801909199010E94DA0908951F93CF934F
:10171000DF9380919901807F09F049C08091960103
:10172000882309F444C080916201C09163016091F3
:10173000940170919501A0919701B0919801D62FD5
:10174000D72316E0C81799F190E0109711F0DF3F0A
:1017500019F401968770F6CF189F9001199F300DEC
:101760001124F901EC59FE4F41814713F2CF40811A
:101770004613EFCF42814111ECCF438154814A1B84
:101780005B0B483C510528F7809199018F7080616F
:1017900080939901F901E759FE4F80818F70806134
:1017A000808384E991E00E9461090E94560BDF91D9
:1017B000CF911F910895A1E1B0E0E1EEFBE00C9420
:1017C0003A238C0185E0F801DE011D9601900D920F
:1017D0008A95E1F7F801E28084E9C82E81E0D82EED
:1017E00060919701709198016115710509F44EC1DE
:1017F0009091940120919501892F82238F3F09F4C4
:1018000045C140815181A380B480F0909601F501DB
:10181000E61BF70BFF2009F4EAC080919901382FED
:10182000307FE83CF10508F0A3C031116DC0FE2CFB
:10183000251316C0941314C0E11012C08F7080617C
:10184000809399010E94770BC6010E9461098091E3
:101850009901F80185838F2D6196EAE00C94562357
:10186000A114B10429F0842F85238F3F09F027C1EB
:1018700080E0F82FF170DF2E80FF3CC08091620184
:101880002091630136E0821315C04D875E878D85F8
:101890009E850E94280B292F22952F702230F0F070
:1018A000243018F59F70F1F0F8019581907FD1F404
:1018B000D12C1EC090E0389FF001399FF00D11240B
:1018C000EC59FE4F6181651306C06081641303C04B
:1018D0006281E6120FC001968770D5CF9F7011F01C
:1018E000882331F3805E883018F3C8010E946109B3
:1018F000FD2CB1CFEE2009F4AECF8091990181602B
:1019000080939901F12CA7CF251306C0941304C02E
:10191000F801EE2009F487C0C8010E94BD098823A0
:1019200019F1EE2009F180919901803270F0209137
:1019300094013091950138872F831986BB86AA863A
:101940008C87CE0107960E94610986E0F801A4E920
:10195000B1E001900D928A95E1F70E94860B0E94FA
:10196000770BFF24F39477CFC8010E946109F9CF68
:10197000311113C07A2DB98AA88A6E2D89890E94E7
:10198000D00984E991E00E94610986E0F601119294
:101990008A95E9F70E94770BB5CF25130FC09413F2
:1019A0000DC0E1100BC0F8018583C8010E946109D8
:1019B00086E0F60111928A95E9F74DCFC8010E94A1
:1019C000BD09882389F2EE2079F280919901803255
:1019D00008F4BBCF20919401309195013A8329837B
:1019E0001B82BD82AC828E83CE010196ACCFE83CD7
:1019F000F10508F03EC0FE2CEE2009F4B5CF25130A
:101A00002AC0941328C08091990180FD1BC0982F93
:101A1000907FC1F0F8018583903F31F0982F907F3F
:101A2000905F8F70892B8583C8010E94610986E0D1
:101A3000F801A4E9B1E001900D928A95E1F70E94C6
:101A4000770B09CF86E0F801A4E9B1E001900D928F
:101A50008A95E1F700CFC8010E94BD09811175CFB9
:101A600080919901816080939901C8010E94610968
:101A7000F2CE7A2DB98AA88A6E2D89890E94D00962
:101A800086E0F60111928A95E9F7D9CFEE2009F4A4
:101A90006BCFC8010E94BD09F82E882309F464CFDA
:101AA00086E0F801A4E9B1E001900D928A95E1F792
:101AB00084E991E00E94B4060E94860BC0CF81E0C9
:101AC0008E25D7CEACE0B0E0E8E6FDE00C944123F3
:101AD0004F83588769877A878B879C87CE010796C3
:101AE0000E94DB0B882369F08A859B85892B39F05E
:101AF0004F815885842F85238F3F09F06BC016E0F6
:101B00005FC086E0FE013796DE01119601900D92CE
:101B10008A95E1F78A859B85892B89F388859F8142
:101B200089238F3F61F32091630130E0C901019661
:101B300087709927409162014817190671F40E9435
:101B40009D09109263011092620186E0E4E9F1E0E0
:101B5000DF011D928A95E9F7D2CF96E0929FD001DE
:101B6000939FB00D1124AC59BE4FFE0131960190E8
:101B70000D929A95E1F7809363010E94560BBFCFB7
:101B8000819FC00111248C599E4F0E94DB0B88233A
:101B9000E9F0E09162011E9FF0011124EC59FE4F23
:101BA0004081518162817381848195810E94DA092B
:101BB0008091620190E0019687709927809362017D
:101BC00080916201909163018913DACF2C96E3E052
:101BD0000C945D2369857A858B859C850E94DA0942
:101BE0008ECF682F80916200909163000E94011F48
:101BF0000895682F80916200909163000E94041FF5
:101C0000089580916200909163000E94071F0895DB
:101C100080919A01859585958595089580919A0181
:101C20008770089590919A01977081E009F480E09F
:101C300008958091A50108959091A501892B809325
:101C4000A501089580959091A50198239093A501F1
:101C500008951092A50108959091A401892B809375
:101C6000A401089580959091A40198239093A401D4
:101C700008951092A401089580919B0108950895FC
:101C80000E943F0E08959091730292FF08C09091B8
:101C90009B01981721F080939B010E94400E0895AC
:101CA00080919B01882329F010929B0180E00E9483
:101CB000400E0895E0916200F09163008091A501CB
:101CC0008083E0916200F091630080819091A40193
:101CD000892B808390919B01992381F0E091620090
:101CE000F09163008081892B8083809162009091C4
:101CF00063000E94B91E81110E94500E8091620003
:101D0000909163000E94821E089508950E94850E9E
:101D100008959091730292FF11C098E0899F9001FD
:101D20001124622B60939A010E94300A80919A01DB
:101D30008595859585950E94860E08950E94300AA6
:101D4000089510929A0180E00E94860E0895909165
:101D50009A018095892380939A01282F277091F406
:101D6000282F082E000C330B9217130659F0909170
:101D7000730292FF07C08595859585950E94400A5C
:101D80000E94A10E08959091730292FB222720F9E0
:101D9000281769F080FB92F9909373028091720288
:101DA000909173020E94140F82E00E94A70E089582
:101DB0008091730282FB882780F991E089270E9435
:101DC000C30E089581E00E94C30E089580E00E9432
:101DD000C30E08956FEF7FEF90E080E00E94C9236B
:101DE000089590E080E00E94A62321E0883E9E4F67
:101DF00009F020E0822F089582E090E00E9498236D
:101E0000089583E090E00E9498230895CF9384E0A2
:101E100090E00E949823C82F82E290E00E949823CD
:101E2000982F8C2FCF910895CF93C92F682F84E0DE
:101E300090E00E94AC236C2F82E290E00E94AC23E1
:101E4000CF910895AB01BC018FE090E00E94BD23CB
:101E50000895AB01BC0183E190E00E94BD23089589
:101E600060E070E0CB010E94290F089560E070E00F
:101E7000CB010E94220F0E94300F089568EE7EEF82
:101E800090E080E00E94C92360E082E090E00E9440
:101E9000AC2360E083E090E00E94AC2310926101EB
:101EA0001092600160E084E090E00E94AC2364E066
:101EB00082E290E00E94AC2360E085E090E00E9426
:101EC000AC2360E086E090E00E94AC236FEF87E0F7
:101ED00090E00E94AC2340E050E0BA0188E090E03E
:101EE0000E94BD2360E08DE090E00E94AC2340E0C2
:101EF00050E0BA0188E190E00E94BD2360E087E1F4
:101F000090E00E94AC2340E050E0BA018CE190E008
:101F10000E94BD2370E060E080E290E00E94C9234F
:101F200040E050E0BA0188E190E00E94BD230E94A9
:101F3000360F08950E943E0F0895682F8EE090E0BE
:101F40000E94AC2308950E94521F6093B8017093C1
:101F5000B9018093BA019093BB016093B40170936F
:101F6000B5018093B6019093B7010895089508953F
:101F70000E94B70F089508950E94BB0F089587E54A
:101F800092E10E946B1E0E94B60F0E94B80F089546
:101F900081E008950E94C80F0895089508950E9451
:101FA000CD0F0E94CE0F08950E9476120E944D061A
:101FB00008950E943F1F0E944B040E94D40F0E946C
:101FC00048180E94BC0F0895AAE0B0E0EAEEFFE0D6
:101FD0000C9437230E94710428EA822E21E0922E6D
:101FE000640110E0F601E190F1906F01812F0E94F1
:101FF000F2041F5F163009F449C0E816F90691F3A0
:102000008091BC0181FD0E94FB040E94CA0F782EC2
:1020100010E0812F0E94F2047C01F401A190B190A4
:102020004F018A159B0561F100E0CC24C394D12CAB
:10203000AE24BF24C5018C219D21892BC1F07720BE
:10204000B1F00E831F8321E0C7018C219D21892BD4
:1020500009F420E028870E94461F8160782F9A8724
:1020600089874E815F8168858A850E947F060F5F20
:10207000CC0CDD1C0F30F1F6F4013297F182E082D6
:102080001F5F163031F60E94A30F22C0E816F90632
:1020900009F0B6CF0E94461F8C018091A601909155
:1020A000A70108171907A1F08FEF89838A831B8284
:1020B0000E94461F8160782F9D838C8349815A81BD
:1020C0006B818D810E947F061093A7010093A6016A
:1020D0000E948E180E9466062A96EDE00C94532307
:1020E000CF93DF930E947211EC01811522E59207D4
:1020F000E8F5811531E5930708F0A3C0883E910506
:1021000010F5803E910570F5883A910570F4853A96
:10211000910508F078C08130910521F1009711F107
:10212000049700F5D0E0C0E01DC08F3B9105D0F7CB
:10213000C85AD0E0CC0FDD1FCA54DF4F0990D881B8
:10214000C02DD4640FC0811540E5940708F066C027
:10215000C11580E4D80708F05EC0CE019A958115BC
:102160009F4100F7CE01DF91CF910895811536E5AB
:10217000930718F5811545E5940708F07BC0C11554
:1021800084E5D80708F071C09E01237033279C2F87
:1021900096959695C115D34508F458C0C1E0D0E096
:1021A00002C0CC0FDD1F2A95E2F730E2939FC001F9
:1021B0001124C82BD92BDA68D5CFC1158AE5D807E9
:1021C00078F4C11529E5D20708F05EC0C11538E5DD
:1021D000D30708F4A7CFDC2FCC27C06FD06AC2CFBB
:1021E000CE0190568115904208F09CCF8D2F8F71B3
:1021F0000E94141290E0982F882788279F719C01D5
:102200002C2BE9013FC0C55AD0E0CC51DF4FC8812B
:10221000D0E0D064A7CFDF70D06AA4CF83709927B5
:1022200021E030E002C0220F331F8A95E2F7C69505
:10223000C69580E2C89FE0011124C22BD32BDD6834
:1022400091CFD82FCC27C16FD06A8CCFC1E0D0E01E
:1022500002C0CC0FDD1F2A95E2F720E2929FC00159
:102260001124C82BD92BDC687DCFDC2FCC27C46F81
:10227000D06A78CF0E941412C82FD0E0DC2FCC2770
:10228000CC27DF71D0626ECF8C2F8F700E9414121A
:1022900034E0D695C7953A95E1F7CF709C2FEC01C5
:1022A000D06960CF972F7630A8F46F3098F470E043
:1022B0002FE0929F600D711D1124FB019AE5899F0B
:1022C000E00DF11D1124EE0FFF1FEC5AFF4F859119
:1022D0009491089580E090E008950E9452110E9428
:1022E0007010089582389105B9F1B0F481339105E9
:1022F00009F47DC048F48932910509F46DC08A3231
:10230000910509F47BC008958533910509F45FC0F8
:102310008933910509F10895833E9105D9F138F487
:10232000803E910529F1823E910579F10895863E1E
:102330009105D9F1873E910509F43EC0843E91058F
:1023400041F52091730221FF24C08091720284FD27
:1023500019C087EE90E0089520917202237009F071
:102360005AC02091730223FF14C089E290E00895BF
:102370002091720220FD38C03091730230FF09C0F5
:1023800024FF43C090E080E008952091720222FD76
:10239000F7CF08952091720222FD3AC03091730266
:1023A00030FD39C024FFF5CFEDCF2091720223FF1D
:1023B000F0CF24FDE7CFCDCF2091720223FD2EC0B8
:1023C0003091730231FFEECF84EE90E008952091BA
:1023D000720225FFDECFC9CF2091720225FD21C0F8
:1023E0002091730223FFD5CF89E390E0D2CF2091D3
:1023F000720226FFCECF8AE290E008952091720209
:1024000026FFC7CF81E390E0089583EE90E0089522
:1024100082EE90E0089580EE90E0089586EE90E0E0
:10242000089585E390E008959091720292FF06C0AE
:10243000282F28712830F9F4877F846093FF06C025
:10244000282F28712831F1F4877E8461209173024E
:1024500020FF06C0382F38713830D9F4877F81606B
:1024600021FF06C0282F28712831D1F4877E816191
:1024700094FD877E0895282F24712430F9F68B7FF0
:102480008860DCCF282F2471243101F78B7E88618E
:10249000DDCF382F3171313019F78E7F8860E0CF72
:1024A000282F2171213121F78E7E8861E1CF80E0D4
:1024B00008950E94EA0E08950E9471042FE389E1B5
:1024C00091E0215080409040E1F700C000000E9460
:1024D000710480E00E94F20480FF04C00E9459123F
:1024E0000E94911F08950E945C1208950E94F10EAF
:1024F000811102C00E949A0F0E94FC0E8093BC01C1
:102500000E94060F90937302809372020E947312CE
:102510000E94010F90E00E94F20980915E0190916B
:102520005F010E94130A08950895CF92DF92EF92FF
:10253000FF921F93CF93DF936C017B01C42F222363
:1025400049F081E08093BF010E94461F9093BE0135
:102550008093BD011091BF0111110AC010E0812FBD
:10256000DF91CF911F91FF90EF90DF90CF90089572
:102570008091BD019091BE010E945E1F059770F38E
:10258000D0E0CC0FDD1FAE01B601C7010E9482234F
:10259000892B41F0AE01B601C7010E948F23109232
:1025A000BF01DDCF10E0FBCF0E94AF1F0E94D90F0B
:1025B0000E94C01F08950E942D1F0E94A81F0E9404
:1025C000BF0F0E94D4120E94CE1F0E94CF0FFBCFDC
:1025D000EF92FF920F931F93CF93DF93EB01E82FBE
:1025E000D1110EC0442321F0F0E0E957FC4FE491F3
:1025F0006E2F7E2F8E2FCDB7DEB7E6E00C945A23D8
:102600000D2F10E0282F30E0442329F029573C4FAC
:10261000F901249130E0F6E0CF9FC0011124EFEFE3
:10262000F0E0BF010E94B122AB018C2F90E0880F37
:10263000991FA5E5A49FB001A59F700D1124861BCD
:10264000970B982F990F980FBF01601B710B629F1A
:10265000D001639FB00D729FB00D11248B2F9D9FF1
:10266000B0011124672F7727EF01C61BD70BBE01DE
:10267000629FE001639FD00D729FD00D11247F01F6
:10268000E91AF108E09EB001E19E700DF09E700D18
:102690001124672F7727E61BF70BE29F8001E39F4A
:1026A000100DF29F100D1124E12F722F42305105B1
:1026B00099F048F44115510569F04130510581F018
:1026C000EB2F8D2F07C04430510569F080F0463064
:1026D0005105B1F76E2F8FCFE22F7B2F812FFACFCD
:1026E000E22F7D2FF7CFEB2F822F712FF3CF7B2F90
:1026F000822FED2FEFCF41E00E94E8120895089558
:102700000E947B130895CF93DF93762FE901682F02
:10271000842F0E948013798368838A83DF91CF910D
:1027200008954B3F08F04AEF0E948313089580916B
:102730007402982F9E7F61F481708260809374028E
:10274000809177028B3F18F08AEF8093770208958B
:102750008A34B0F381708864F1CF88E090E00E9401
:10276000A0230895CF92DF92EF92FF926B017C013C
:102770000E949713B701A60188E090E00E94BD2354
:10278000FF90EF90DF90CF900895E4E7F2E083E0D0
:10279000808311828FEF82838AEF8383148260812A
:1027A0007181828193810E94B21308958091740295
:1027B00080FF02C08695089580E008959091780288
:1027C000933018F49F5F90937802882351F06091C2
:1027D00074027091750280917602909177020E9446
:1027E000B213089581E00E94DE130895909178025B
:1027F000992319F0915090937802882351F06091B9
:1028000074027091750280917602909177020E9415
:10281000B213089581E00E94F613089570E00E94BB
:10282000FF190895609168008091740280FF0BC0C9
:102830008091670023E0829FC001112487589D4F3B
:102840000E940E1408958091690090916A0023E01F
:10285000829FF0011124E758FD4F891748F7118234
:10286000108212828F5F3396F8CF9091740290FF9E
:102870000EC09091690020916A0033E0939FF001AF
:102880001124E758FD4F921718F00E941214089572
:102890008183608342839F5F3396F5CFA3E0B0E0EE
:1028A000E4E5F4E10C9442239091740290FF0AC095
:1028B0009E012F5F3F4F0E9491134B8169818A8156
:1028C0000E9435142396E2E00C945E23CF93DF93AD
:1028D000EC01EC81F0E0EE57FD4F4491E4E7F2E0CB
:1028E000628181810E944E148C818F5F8C83DF9185
:1028F000CF910895CF93DF93EC01E4E7F2E04381B9
:1029000062818C810E944E148C818F5F8C83DF9159
:10291000CF910895A3E0B0E0E0E9F4E10C94402306
:102920008C018091C00181110AC09E012F5F3F4F31
:102930004AEF6FEF0E9491138A818093C001F801E2
:102940006481613069F08091C00140E0662361F0EC
:1029500040E0623011F44091C00180E060E004C0CA
:102960006091C00140E080E00E943514F80184814C
:1029700090E0019663E070E00E94C5228483239674
:10298000E4E00C945C23A3E0B0E0E9ECF4E10C9407
:102990003B23082FD62EE42EC22E9091740290FF76
:1029A00029C0E92FE695AE2FB0E0A951BF4F8C9119
:1029B0008093CC019E7F923009F59E012F5F3F4F9F
:1029C000802F0E9491134B8169818A810E94351466
:1029D00000937502D0927602E0927702CC2051F0FB
:1029E00060917402709175028091760290917702E5
:1029F0000E94B2132396E9E00C945723823019F415
:102A0000E0907702E5CF863019F400917502E0CFAF
:102A10008930D9F38931E1F6E9516E2F6170B62E14
:102A2000E695F0E0EE57FC4F1491F12C60916B00AD
:102A3000F61618F00E941214CBCFF19EC00111249B
:102A400070E00E94B122802FB11014C0860F209137
:102A50006900622F6F0D7727771F9B01220F331FAD
:102A6000260F371F27583D4F4E2D6D2D0E94911375
:102A7000F394DCCF861BEBCFE4E7F2E09181282FC3
:102A80004381628188E0890F0E94C314089581E028
:102A90000E943C150895E4E7F2E09181282F4381DC
:102AA000628188EF890F0E94C314089581E00E941B
:102AB0004B150895E4E7F2E0628128E0620F08F424
:102AC0006FEF282F438181810E94C314089581E014
:102AD0000E945A150895E4E7F2E0628128E0621B43
:102AE00008F460E0282F438181810E94C314089577
:102AF00081E00E946B150895E4E7F2E0438128E04D
:102B0000420F08F44FEF282F628181810E94C31485
:102B1000089581E00E947C150895E4E7F2E0438186
:102B200028E0421B08F440E0282F628181810E9446
:102B3000C314089581E00E948D15089520E00E943D
:102B4000C3140895EF92FF921F93CF93DF93EC018C
:102B500010E0EE24EA94F12C60916B00161770F0EF
:102B60000E9412149A818C8190FF27C08F5F8C8302
:102B7000DF91CF911F91FF90EF9008952091690010
:102B8000422F410F5527551FCA019A01220F331FAB
:102B9000280F391F27583D4F70E0C7010E94C522FA
:102BA000962F8C814091770260917602199F800D5B
:102BB00011240E9491131F5FCFCF8150D8CFB0E076
:102BC000A0E0E5EEF5E10C943A23FC0182810FEFE1
:102BD00080FF01E010E04CE0A42E80916B001817FC
:102BE00098F00E9412148091C201013009F04FC088
:102BF000811102C080916B0081508093C201CDB7DA
:102C0000DEB7EAE00C945623C0916900C12ED12CA6
:102C1000CC0DDD2DD11DCE01880F991FC80FD91FF6
:102C2000C758DD4F198218821A8234E0E32EF12C46
:102C3000B12C8091C2018B0D8D301CF16A2D0E9448
:102C4000A322892F082E000C990BC816D90691F4DF
:102C5000809177028E9DA0018F9D500D1124559576
:102C60004795559547959E01609176028091750232
:102C70000E949113B00EF1E0EF1AF108D1F61F5F38
:102C8000ACCF87FFDFCF90916B00890FDBCF90E057
:102C9000019660916B0070E00E94C522AECF0F9349
:102CA0001F93CF93DF938091690090916A0023E096
:102CB000829FF0011124E758FD4F891740F1C0E0D1
:102CC000D3E060916B00C61740F10E94121420916E
:102CD00065008091C101820F8093C10190916600CF
:102CE000920F90936600191654F4082E000C990B5D
:102CF00040916B004150550B841795071CF02195AE
:102D000020936500DF91CF911F910F91089511825B
:102D1000108212828F5F3396D0CF0C2F10E070E0BC
:102D2000C8010E94C52220916900820F482F50E0FF
:102D30002091C101022E000C330B02171307BCF0C7
:102D400020916600022E000C330B201731077CF017
:102D50008D9F9001112427583D4F4091770260913B
:102D60007602809175020E949113CF5FAACFFA017B
:102D7000EE0FFF1FE40FF51FE758FD4F1182108281
:102D80001282F3CFB0E0A0E0E8ECF6E10C94382337
:102D9000EC014C81042F10E09801D8010E94092316
:102DA0009B01AC010E941F234B015C01E0E2F0E0BB
:102DB000E01BF10BA5E5B0E0AC019B010E941F23D5
:102DC0006B017C019F01DF010E9401239B01AC018B
:102DD0000E942A239B01AC01280D391D4A1D5B1D51
:102DE000C701B6010E94D922F22E822F90E039E26B
:102DF0003F1520F143E0249F90011124359527953C
:102E0000122F109500E085E5E82EEF1880916B00F9
:102E1000081718F10E9412149C8181E0992319F07F
:102E2000903219F48FEF8093640080916400890FD1
:102E30008C83CDB7DEB7ECE00C94542325E530E06D
:102E4000B901681B790B9B01220F331F260F371F17
:102E500037FFD4CF2F5F3F4FD1CF8E2D01FD8F2D68
:102E600020916900622F600F7727771F9B01220F47
:102E7000331F260F371F27583D4F412F6091760291
:102E80000E9491130F5FC2CF0F931F93CF93DF93D5
:102E9000EC0110E000E090916B009017110609F032
:102EA0006CF40E9412148C8190E001968170992735
:102EB0008C83DF91CF911F910F910895209169002C
:102EC000A801420F511D9A01220F331F240F351FF5
:102ED00027583D4F4C8160917602809175029695FE
:102EE0009017110651F04CF0442349F040917702BD
:102EF0000E9491130F5F1F4FCECF4423B9F340E0E0
:102F0000F7CFE4E7F2E080818E7F8083608171817A
:102F1000828193810E94B2131092CD012FEB84ED38
:102F200091E0215080409040E1F700C000000E94F5
:102F300012140895E4E7F2E080818E7F808310927E
:102F4000CD012FEB84ED91E0215080409040E1F7DE
:102F500000C000000E94121408951092CD018091CB
:102F6000CA0181110AC081E08093CA018091740274
:102F700081708093C9010E949A170895609174022C
:102F8000669570E04BE050E08CE690E00E9475237F
:102F9000892B19F481E08093CD010E94461F909304
:102FA000C4018093C30108959091740290FF2BC0D7
:102FB0009170811129C0926090937402662351F040
:102FC00060917402709175028091760290917702FF
:102FD0000E94B21360917402669570E04BE050E07D
:102FE0008CE690E00E947523892BA9F01092CD0108
:102FF00081E08093C60140917702609176028091D2
:1030000075020E949E150895853210F09864D4CF01
:10301000880F982BD1CF0E94BE17EACF682F9091CE
:103020007402969581E0890F853208F081E00E9454
:10303000D417089581E00E940E180895682F90918A
:10304000740296958FEF890F09F484E20E94D417D9
:10305000089581E00E941E18089561E00E94D4172F
:103060000895E4E7F2E080818160808386950E9484
:103070002D1808958091740280FF03C00E9481176B
:1030800008950E943118089560E00E94D4170895B1
:103090008091CB0181112EC00E94F10E811104C0DC
:1030A0000E949A0F0E94C5130E94AD136093740290
:1030B0007093750280937602909377026E7F61F42D
:1030C0000E94C5130E94AD13609374027093750241
:1030D00080937602909377020E9497131092CD010D
:1030E0008091740280FF03C086950E94441881E09D
:1030F0008093CB010895E4E7F2E0808181608083D2
:1031000086950E94441808951092CA018091C901C1
:1031100081110E947B180E94BE1708950F931F9380
:10312000CF93DF938091CD018823B9F18091CC01B9
:10313000E0917402E695E81BE093C501823091F5B9
:10314000F0E0E258FD4FE491CE2FD0E006E614E126
:103150008091C601882361F01092C6010E94461F2B
:103160009093C4018093C3011092C8011092C701CB
:103170000E94461FE091C301F091C4018E1B9F0B7A
:103180008F3F9F4750F4EC0FFD1FF093C401E09375
:10319000C30183EC91E0F8010995DF91CF911F9174
:1031A0000F910895863049F4F0E0E558FD4FE49121
:1031B000CE2FD0E00AE714E1CBCF893051F4E69569
:1031C000F0E0E858FD4FE491CE2FD0E002EA15E19F
:1031D000BFCF8F3051F4E695F0E0EB58FD4FE4910E
:1031E000CE2FD0E00FED15E1B3CF853149F4F0E0FB
:1031F000EE58FD4FE491CE2FD0E00FE416E1A8CFBA
:10320000C8E2D0E002EC16E1883109F4A1CF8332A4
:1032100039F4E0E7F2E0C591D4910AE814E198CFDF
:10322000C4EFD1E004E417E1843209F491CFC0ED9A
:10323000D7E00FE713E18CCFFA01811101C0FB0148
:1032400009950895CF93DF93C82FD62F0E94D613E8
:103250008C1748F00E94D6138D1728F40E941A1874
:10326000DF91CF9108958C2F0E942D18F9CF1F93D5
:10327000CF93DF93EC01FB01128111117EC00E94FC
:10328000190E8272CD3CFCE5DF0709F49CC008F002
:1032900041C0C73CECE5DE0709F481C0D8F4C43C6A
:1032A0009CE5D90709F471C030F4C33CDC4509F44E
:1032B00069C011E062C0C53C9CE5D90709F46AC049
:1032C00046E555E167E475E1C63CDC4591F70E94AF
:1032D0001C1953C0CA3CFCE5DF0709F46AC068F456
:1032E000C83CECE5DE0709F45FC047E655E168E756
:1032F00075E1C93CDC4559F3DCCFCB3C9CE5D907F3
:1033000009F45CC04AE054E162EF73E1CC3CDC4577
:10331000F1F2CFCFC23DFCE5DF0709F465C098F4B8
:10332000CF3C9CE5D90709F457C008F451C0C03D13
:10333000FCE5DF0709F455C0C13DDC4509F0B9CF14
:103340006EE089E04BC0C53D9CE5D90709F452C049
:1033500058F4C33DFCE5DF0709F449C0C43DDC4532
:1033600009F0A7CF88E135C0C63D9CE5D90709F42F
:1033700044C0CE35DD4509F09CCF812FDF91CF9140
:103380001F9108950E943A18F8CF49E258E16AE186
:1033900078E19DCF4AE158E169E278E198CF47E4CE
:1033A00055E166E575E193CF48E755E167E675E1DC
:1033B0008ECF4AE955E169E875E189CF49E855E1E1
:1033C0006AE975E184CF42EF53E16AE074E17FCFAF
:1033D00081E00E942D18D1CF65E082E00E94221981
:1033E000CCCF68E086E0FACF64E18FE0F7CF67E109
:1033F00085E1F4CF62E289E1F1CF83E2EACF0F9376
:103400001F93CF93DF938C01EB018091CE0181114B
:1034100005C00E94341D81E08093CE01AE01440FAF
:10342000551F4C0F5D1F24E630E0B80180EB0E9471
:10343000111EDF91CF911F910F910895CF93DF93CC
:10344000EC01FB018281882309F464C1C430FDE5ED
:10345000DF07E0F5CB3F9CE5D90730F49E01225011
:103460003C4524313105D8F50E94060F9093730234
:1034700080937202C231ECE5DE0709F41FC108F047
:103480006EC0C9308CE5D80709F4F2C008F03FC01F
:10349000C530ECE5DE0709F4DBC058F5C3308CE538
:1034A000D80709F4CDC008F0CFC0809172028160C6
:1034B000C230DC4509F4AEC0809172029091730273
:1034C0000E94140F0E949D0980E009C0C63AEDE5F4
:1034D000DE0751F238F4C2369DE5D90729F2DF91B3
:1034E000CF9108959E012E5A3D4523303105B8F7FE
:1034F000BBCF809172028062C730FCE5DF0709F420
:1035000089C008F4B1C080917202806483C0CD305C
:103510009CE5D90709F4BAC070F4809172028E7FDD
:10352000CB30FCE5DF0709F475C008F4A7C0809133
:1035300072028D7F6FC0CF309CE5D90709F4B6C009
:1035400008F4A8C0C031FCE5DF0709F4B3C0C131FD
:10355000DC4509F0B1CF809172028F7B5BC0C11551
:103560009DE5D90709F4B4C098F5CB3FFCE5DF072A
:1035700009F472C0B8F4C4319CE5D90709F4B6C0A7
:1035800008F4A2C0C531DC4509F096CF80917202E3
:1035900082FB992790F921E0922790FB82F990FB1A
:1035A00083F938C0CD3F8CE5D80709F477C008F41B
:1035B00057C0CE3FECE5DE0709F474C0809173027A
:1035C0008360CF3FDC4509F077CF8093730274CFDF
:1035D000C2368DE5D80709F496C068F4C230EDE52F
:1035E000DE0709F48CC008F477C0C330DD4509F06C
:1035F00063CF80E085C0CE3A9DE5D907E9F068F455
:1036000090917202892F8E7F90FF8160C63ADD45CE
:1036100009F052CF809372024FCFCF3A8DE5D80791
:1036200089F1C03BDD4509F047CF90917302892FA6
:10363000877F93FF8860C9CF809173028860C5CF70
:10364000809172028260E6CF809172028460E2CF44
:10365000809172028860DECF809173028160B5CF65
:10366000809173028260B1CF809172028061D2CF6B
:103670000E949D09809172028068CCCF8091720275
:103680008C60C8CF80917302877F9FCF8091720238
:103690008B7FC0CF80917202877FBCCF80917302F5
:1036A0008E7F93CF809173028D7F8FCF8091720236
:1036B0008F7EB0CF809172028F7DACCF0E949D092A
:1036C000809172028F77A6CF80917202837FA2CF02
:1036D000809173028C7F79CF80917302982F90959F
:1036E00091708E7F892B90FB81F96FCF0E949D098D
:1036F00090917202892F97FB87F980588BCF81E0D8
:103700000E949D0FD9CE90917202892F8F7E94FFD7
:10371000806180CF81E0E3CE8B3109F465C040F554
:103720008B3071F078F4863009F447C020F485308E
:1037300059F180E00895873009F448C08830C9F70E
:1037400081E00895803109F45DC068F48E3089F716
:103750009091BC01892F8B7F92FF84608093BC0184
:1037600082FD4CC0EDCF863159F3893149F3E1CF69
:103770008A3201F160F48732B1F020F48E31C8F260
:103780008D514CC08932A9F60E94BE05D9CF833431
:1037900040F48A3308F041C0853329F0883381F240
:1037A000C8CF833431F681E090E00E94F2090E9494
:1037B0009D09C6CF0E949A0FC3CF8091BC01807F24
:1037C0008093BC0181E08093CF0108959091BC016A
:1037D000892F8E7F90FF81608093BC0180FDB0CFE8
:1037E000817F8093BC01ACCF9091BC01892F8D7FEC
:1037F00091FF82608093BC0181FFA2CF8091BC01C8
:103800008160EFCF9091BC01892F877F93FF886003
:103810008093BC0183FDF2CF93CF895321E030E048
:10382000A90102C0440F551F8A95E2F7CA01BDCF16
:1038300080E008950E94181C0895CF93C82F8091AE
:10384000CF01882331F0813099F01092CF0180E0D0
:103850000DC00E94190E8232D1F78C2F0E94181CC5
:10386000811116C08C2F0E948C1B8170CF910895FE
:103870000E94190E823289F38C2F0E941A1C81112A
:1038800005C0C43171F038F4CB3079F781E0EDCF69
:1038900081E090E0EACFC93221F0C833B9F380E08B
:1038A000E4CF1092CF01FBCFCF93DF93EB018631B2
:1038B0009C4511F50E94190E9A81992399F08A7AF4
:1038C00091E009F490E09093D001811109C089E260
:1038D0000E94F10D0E945A0E80E0DF91CF91089571
:1038E00085E3F6CF8091D001811104C089E20E9466
:1038F000F90DF0CF85E3FBCF81E0EFCF0F931F935E
:10390000CF93DF93C42FD22FFC0182818823C9F08B
:103910004093D3010E94461F9093D2018093D1011E
:1039200080E28C0F883040F4C77081E001C0880FBE
:10393000CA95EAF70E944E07DF91CF911F910F9130
:1039400008951091D301141332C08091D101909148
:10395000D2010E945E1F883C910548F5C0E2CD0F60
:103960001D17B9F080E2810F883040F4177081E0B4
:1039700001C0880F1A95EAF70E945507C83048F42D
:1039800081E09D2F977001C0880F9A95EAF70E94F9
:103990004E07802F0E944507C83070F6D77081E02F
:1039A00001C0880FDA95EAF70E945507C5CF80E27B
:1039B0008C0F883008F6C77081E001C0880FCA9567
:1039C000EAF7F2CF0F939C01CB01243F4CE534077B
:1039D00059F1A8F4293DFCE53F0701F12A3D4CE5EA
:1039E0003407D1F1283D3C4591F406E221EE41EE49
:1039F00068ED7CE50E947E1C80E00F910895263FD3
:103A0000FCE53F07E9F0B0F0273F3C45F9F0FC0149
:103A10008281882339F11092D301EFCF07E225EE9E
:103A200045EE69ED7CE5E6CF06E221EE40EE64EF7F
:103A30007CE5E0CF07E225EE44EE65EF7CE5DACFEA
:103A400006E221EE42EE66EF7CE5D4CF07E225EEFA
:103A500046EE67EF7CE5CECF08E221E045EE6AED69
:103A60007CE5C8CF81E0C9CF11B887E080B985B3C4
:103A7000836085BB86B7846086BF86B7816086BF5A
:103A800086B7806486BF0895B0E0A0E0EAE4FDE177
:103A90000C943923B82EEB010E94461F6C01EE24D2
:103AA000E394F12CC431D10560F025E0E22EF12C35
:103AB000CF3FDC0731F0CE0164E170E00E94B1221B
:103AC0007B0184EAA82E94E8992E16BEA6BE0E9419
:103AD000461F8C0106B607FE0BC081B1887F883077
:103AE000F1F081B1887F8031D1F00FEF1FEF08C076
:103AF000C8010E945E1FE816F90660F70EEF1FEF7F
:103B0000CF3FDC0711F3C6010E945E1FC817D9071B
:103B1000E0F6C801CDB7DEB7EBE00C945523B3B89F
:103B200096BE0E94461F8C0106B607FE09C081B1F1
:103B3000887F883111F08034C1F610E000E0E9CFD1
:103B4000C8010E945E1FE816F90670F7D7CF0F93E1
:103B50001F93CF93DF93EB0183B984E886BF0E9464
:103B6000461F8C0106B607FE10C021B1287F81E0F8
:103B700090E0283211F490E080E0919581959109D0
:103B8000DF91CF911F910F910895CF3FDC0751F343
:103B9000C8010E945E1FC817D90720F78EEF9FEF5C
:103BA000EFCF0F931F93CF93DF93EC0184EC86BF8D
:103BB0000E94461F8C0106B607FE07C083B190E045
:103BC000DF91CF911F910F910895CF3FDC0799F3BB
:103BD000C8010E945E1FC817D90768F78EEF9FEFD4
:103BE000EFCF0F931F93CF93DF93EC0184E886BF51
:103BF0000E94461F8C0106B607FE07C083B190E005
:103C0000DF91CF911F910F910895CF3FDC0799F37A
:103C1000C8010E945E1FC817D90768F78EEF9FEF93
:103C2000EFCFB0E0A0E0E7E1FEE10C943C236B01B4
:103C30008A017901B9010E94441DE6010C0D1D1D88
:103C4000C017D10711F097FF07C024E926BFCDB7F1
:103C5000DEB7E8E00C945823B70189910E94A71DB4
:103C6000EFCFB0E0A0E0E7E3FEE10C943C23EB01F2
:103C70008A016901B90181600E94441DF12CE12C87
:103C800001501109E016F106D8F497FF0CC024E9A1
:103C900026BF1816190614F490E080E0CDB7DEB701
:103CA000E8E00C945823C6010E94D11D97FD04C082
:103CB000FE01EE0DFF1D80832FEFE21AF20AE2CF24
:103CC00097FDE5CFC6010E94F11D97FDE0CFC00F23
:103CD000D11F8883DCCF90930D0180930C01089550
:103CE0009093D9018093D8010895E091D801F09183
:103CF000D901309729F00190F081E02D09950895C0
:103D000080E00895E091D801F091D901309721F039
:103D10000280F381E02D099508952091D60130911C
:103D2000D7012817390771F09093D7018093D601F6
:103D3000E091D801F091D901309721F00680F78108
:103D4000E02D099508952091D4013091D5012817CF
:103D5000390771F09093D5018093D401E091D80197
:103D6000F091D901309721F00084F185E02D09957B
:103D700008959C012E5F3F4FAC01485F5F4F80E08C
:103D80002417350709F40895F90191919F019923AA
:103D9000B9F38F5FF5CF662349F0FC0132960896A0
:103DA0002191261729F0E817F907D1F780E0089547
:103DB00081E008959C01FC0132969FEF80E04191E3
:103DC000461751F09F3F19F4411101C0982F8F5FA2
:103DD0008630A9F79F3F09F40895290F311D97FDFB
:103DE0003A95F90162830895FC0132960896219173
:103DF000261303C0DF0111971C92E817F907B9F7E2
:103E000008950E94DA1E08950E94F41E08950296F5
:103E100026E0FC0111922A95E9F708950895089586
:103E20000E940F1F0895089508950E940E1F08957F
:103E3000CF930E94131F0E9471040E94141FC0E0C0
:103E40008C2F0E94F204892B31F4CF5FC630C1F76A
:103E500080E0CF91089581E0FCCF84B7806884BF73
:103E600084B7806884BF08958091DC0181110E942D
:103E7000220608950E949D090E94290608958BE05C
:103E800083BF8BEB8CBF82E089BF08952FB7F89476
:103E900080919D0290919E02A0919F02B091A002FC
:103EA0002FBF08952FB7F89460919D0270919E02E4
:103EB00080919F029091A0022FBF08959C014FB75F
:103EC000F89480919D0290919E02A0919F02B091E2
:103ED000A0024FBF821B930B089578941F921FB6C8
:103EE0001F9211248F939F93AF93BF9380919D0254
:103EF00090919E02A0919F02B091A0020196A11DF7
:103F0000B11D80939D0290939E02A0939F02B09357
:103F1000A002BF91AF919F918F911F901FBE1F90E4
:103F2000189560E081E090E00E94CF2388E19CE05A
:103F30000FB6F894A89581BD0FBE91BDFFCF88E163
:103F40009CE00FB6F894A89581BD0FBE91BDFFCF40
:103F50000E94461F9093DB018093DA0108950E942E
:103F600088228B9A80E0815019F48B987894089578
:103F7000A895E7EBFBE03197F1F700C00000F3CF25
:103F80000E94B0200E94701E2FEB84ED91E0215022
:103F900080409040E1F700C0000008958091C80281
:103FA000882311F11092C8020E94461F9093DB01F2
:103FB0008093DA018091DC01882341F01092DC01CA
:103FC0000E943A1F8091DC01811112C00E94982149
:103FD0008091CE02882329F08091AC0284FD0E945A
:103FE000E40F0E94572008958091DC01882301F19D
:103FF0000E94341F0E94181F8823A9F3F89421B34C
:10400000939A822F8C6081BB92B33CE0932792BB42
:104010004FE58AEE90E0415080409040E1F700C0CB
:10402000000082B3832782BB21BB939878940895C4
:104030008091DA019091DB010E945E1F069708F4DF
:10404000C1CF81E08093DC010E94341FBBCF8091FF
:104050007102089508959091E201981307C020918C
:10406000E0013091E10126173707A9F08093E201C2
:104070007093E1016093E0018093DD017093DF01B3
:104080006093DE018091E50284FF05C063E08DED61
:1040900091E00E9493210895BC0184E00E942B20AE
:1040A0000895BC0183E00E942B2008950895CF93CA
:1040B000DF93CAE0D0E08091AC0284FF1AC0809107
:1040C000EE019091EF01981789F028E0829FC001DE
:1040D000112468E080519E4F0E948E218091EE0154
:1040E00090E001968F7099278093EE01DF91CF9138
:1040F00008950E94982187EB9BE00197F1F700C09B
:1041000000002197C1F6F2CFCF93DF93EC01A0918D
:10411000EF01B0E0CD0101968F7099272091EE015B
:10412000281779F093E0AA0FBB1F9A95E1F7A051E9
:10413000BE4F98E0FE0101900D929A95E1F78093B1
:10414000EF010E9498210E94572088E0FE01A6EE10
:10415000B1E001900D928A95E1F7DF91CF9108953A
:1041600087E790E00895FC01808180768032F1F449
:104170008181813061F484819581892BB9F486EE47
:1041800091E09093CA028093C90288E0089582303A
:1041900041F480E792E09093CA028093C90281E0E3
:1041A00008958A3029F483818093700280E0089515
:1041B0008930E1F7828193818115924069F484818D
:1041C0009581892B49F481E08093E501868197816F
:1041D0009093E4018093E3018FEF0895FC018091B7
:1041E000E3019091E401892B61F08091E501813038
:1041F00041F49081909371021092E4011092E301D6
:1042000008958FEF08950895FC019381933051F143
:1042100030F49130B9F09230E9F080E008959132B5
:10422000D9F19232D1F784819581009709F445C084
:10423000019799F780EF94E09093CA028093C902A6
:1042400082E3089582EC94E09093CA028093C902BD
:1042500082E1089587E894E09093CA028093C902AE
:104260008BE308958281813079F0882329F08230B0
:10427000A1F684ED94E00AC08CEE94E09093CA021B
:104280008093C90284E0089580EE94E09093CA027E
:104290008093C9028AE008958281882331F08130B9
:1042A00009F0BBCF82EB94E002C089E994E09093DF
:1042B000CA028093C90289E0089582E295E0909352
:1042C000CA028093C90280E408951F93CF93DF93BD
:1042D000E82F792F162FEA01888184FF1CC02981DD
:1042E00088E828272983CE010296DC012E2F372F5C
:1042F000512F5E0FF90121912D939F01452F4E1BE8
:104300001416C4F3612F0E94E5021C5F1883DF912D
:10431000CF911F9108958AE58883E5CF4CEA52E05A
:104320000E946521089545EE52E00E94652108959E
:10433000CF93DF936091CB02635067FD12C08091F1
:10434000C702CCE0D0E0C81BD109C153DD4F80913A
:10435000C602803108F054C0CE010E9403211092A1
:10436000CB028091840084FF3EC0809183008F3F08
:10437000D1F1C82F893008F0C8E0982F9C1B90938A
:1043800083009091A10228E892279093A1028823AC
:10439000E9F08091C9029091CA022091C50226FFDE
:1043A000AEC0FC012C2FA2EAB2E034913D933196CD
:1043B0002150D9F79C012F5F3F4F8FEF8C0F820F59
:1043C000932F911D9093CA028093C9026C2F82EAA9
:1043D00092E00E94E502CC5FCC3019F08FEF809321
:1043E0008300C093840084E190B39C7031F48150C9
:1043F000D9F71092CC021092C402DF91CF910895A8
:104400008D3209F069C0683009F0A9CF83EC809340
:10441000A1028AE5809384001092C502888180768B
:1044200071F0CE010E94B3208F3FC1F4988197FDB7
:104430008E8190E89093C5028093830090CF2A816B
:104440001092AA029981911111C01092AB022AEA2E
:1044500032E082E03093CA022093C9029F81911119
:10446000EBCF9E81981740F7892FE6CF953029F43E
:104470002093CC022AEA32E0EDCF963099F49B816A
:10448000913021F4CE010E94042108C09230D1F372
:104490009330C1F39132B1F39232A1F390E490934F
:1044A000C502C2CF983089F0993019F42093CE021A
:1044B000E1CF9A3071F09B30E9F69BE49093AD0226
:1044C0009093E6029093B902D5CF2EEC32E081E0D2
:1044D000C1CF2AEA32E0FBCF8091C50287FF3FCFF0
:1044E000CE010E94EE208F3F21F48EE18093840064
:1044F00036CF882309F433CF1092830030CFDC010C
:104500002C2FE2EAF2E03D9131932150E1F752CFB6
:10451000CF93DF9385B7886085BF8BB780688BBFEB
:10452000CCEAD2E08BE48983A5EEB2E011968C93BD
:104530001197E8EBF2E081838AE588838C9380838E
:10454000DF91CF91089587FB082E062687FD819580
:1045500067FD61950E9469230EF4919507FC819592
:104560000895AA1BBB1B51E107C0AA1FBB1FA617BA
:10457000B70710F0A61BB70B881F991F5A95A9F70C
:1045800080959095BC01CD01089597FB072E16F4F8
:10459000009407D077FD09D00E94B12207FC05D016
:1045A0003EF4909581959F4F0895709561957F4F4A
:1045B0000895A1E21A2EAA1BBB1BFD010DC0AA1F64
:1045C000BB1FEE1FFF1FA217B307E407F50720F07C
:1045D000A21BB30BE40BF50B661F771F881F991FF7
:1045E0001A9469F760957095809590959B01AC0140
:1045F000BD01CF010895EE0FFF1F0590F491E02D4E
:1046000009940E940923332312F48A1B9B0B0C94F8
:104610001A23A29FB001B39FC001A39F700D811DFB
:104620001124911DB29F700D811D1124911D0895BB
:104630000E940923B7FF0895821B930B08950E94DF
:104640000923A59F900DB49F900DA49F800D911DEF
:1046500011240895B7FF0C941F230E941F23821B6F
:10466000930B08952F923F924F925F926F927F9299
:104670008F929F92AF92BF92CF92DF92EF92FF9272
:104680000F931F93CF93DF93CDB7DEB7CA1BDB0B1E
:104690000FB6F894DEBF0FBECDBF09942A883988C3
:1046A00048885F846E847D848C849B84AA84B984CA
:1046B000C884DF80EE80FD800C811B81AA81B981D6
:1046C000CE0FD11D0FB6F894DEBF0FBECDBFED01EA
:1046D0000895991B79E004C0991F961708F0961B5E
:1046E000881F7A95C9F780950895FC014150504084
:1046F00030F001900616D1F73197CF010895882741
:1047000099270895FB01DC0104C08D910190801967
:1047100021F441505040C8F7881B990B0895FB01C4
:10472000DC0102C001900D9241505040D8F708952D
:10473000E199FECF9FBB8EBBE09A99278DB3089578
:10474000A6E1B0E044E050E00C94DE23A8E1B0E044
:1047500042E050E00C94DE23262FE199FECF9FBB70
:104760008EBBE09A01970DB2021631F02DBB0FB649
:10477000F894E29AE19A0FBE08950396272F0E94BB
:10478000AD230E94AC23252F0E94AD23242F0C942F
:10479000AD230196272F0E94AD230C94AC23262F26
:1047A000E199FECF9FBB8EBB2DBB0FB6F894E29A6A
:1047B000E19A0FBE01960895DC01CB01FC01E1995D
:1047C000FECF06C0FFBBEEBBE09A31960DB20D9254
:1047D00041505040B8F70895F894FFCF97079707D6
:1047E000C807C8075508F707F707F7077108E20871
:0447F000F108F108D3
:1047F400FFFF9C01010102000C000C0C01191A1BA3
:104804001C1D1E1F20212227208420562051204CAD
:10481400202A20FF5AE200E900EA00B500B600B7FA
:1048240000CD008301CC008A01920194012102236E
:104834000224022502260227022A02B300B4006FD2
:10484400007000818283E200E900EA00B500B6004E
:10485400B700CD008301CC008A01920194012102AA
:10486400230224022502260227022A02B300B400EE
:104874006F007000818283000102020202060606B4
:104884000909090909090F0F0F0F0F0F151515183D
:0C489400191919191919191919192324D7
:00000001FF
